:1000000000000420B5020000DD020000DF02000055
:10001000E1020000E3020000E50200000000000031
:10002000000000000000000000000000E7020000E7
:10003000E902000000000000EB020000ED020000F9
:10004000912F0000556A020049340000EF020000C1
:10005000EF020000EF0200009D320000EF020000FE
:10006000EF020000EF020000EF020000EF020000CC
:10007000EF0200005D350000EF020000EF0200001B
:10008000EF020000E5190000EF020000EF0200009F
:10009000811A0000EF020000EF020000EF020000F2
:1000A000EF020000EF02000061370000EF020000E5
:1000B000EF020000EF02000000000000000000005E
:1000C000EF020000EF020000EF020000EF0200006C
:1000D000498C0200EF020000EF020000EF02000076
:1000E000EF020000EF020000EF020000000000003D
:1000F00000000000EF02000000000000EF0200001E
:1001000000000000000000000000000000000000EF
:1001100000000000000000000000000000000000DF
:1001200000000000000000000000000000000000CF
:1001300000000000000000000000000000000000BF
:1001400000000000000000000000000000000000AF
:10015000000000000000000000000000000000009F
:10016000000000000000000000000000000000008F
:10017000000000000000000000000000000000007F
:10018000000000000000000000000000000000006F
:10019000000000000000000000000000000000005F
:1001A000000000000000000000000000000000004F
:1001B000000000000000000000000000000000003F
:1001C000000000000000000000000000000000002F
:1001D000000000000000000000000000000000001F
:1001E000000000000000000000000000000000000F
:1001F00000000000000000000000000000000000FF
:1002000010B5054C237833B9044B13B10448AFF350
:1002100000800123237010BDE802002000000000D0
:1002200060CE020008B5034B1BB103490348AFF38E
:10023000008008BD00000000EC02002060CE02003B
:10024000154B002B08BF134B9D46A3F5803A0021A8
:100250008B460F461348144A121A29F047F80F4BE1
:10026000002B00D098470E4B002B00D09847002061
:10027000002104000D000D48002802D00C48AFF307
:10028000008028F0D9FF2000290004F0F7FD28F0B5
:10029000ADFF00BF000008000000042000000000C7
:1002A00000000000E8020020E83A00200000000002
:1002B000000000000649074A074B9B1A03DD043B78
:1002C000C858D050FBDC04F071FEFFF7B9FF000006
:1002D0002CCF020000000020E8020020FEE7FEE72D
:1002E000FEE7FEE7FEE7FEE7FEE7FEE7FEE7FEE7E6
:1002F000F0B595B01C46164608460D4602F0B6FA13
:100300001A9B0D93CDE9086400242346082205A911
:1003100028460A948DF82C400C9402F0C4FA079BEE
:100320000293069B03939DF814308DF8114003F05F
:100330000302012A1DD1BDF81440059EC3F3C20378
:10034000C4F383148DF81030A20008230EA92846A8
:1003500002F0A9FAC6F3952608AB0093224602AB39
:100360000EA9304600F0F2FC284602F083FA15B0E0
:10037000F0BD022AF8D1BDF81640C3F3C203A409A8
:100380008DF810300827082C264628BF08263B4643
:1003900032460EA9284602F086FAA41B08AB02AA30
:1003A00031460EA8374400F035FD002CEBD1DBE7D9
:1003B000014B01221A70704745030020704700006E
:1003C00070B50F4D06460FCD88B06C460FC495E84A
:1003D0000F00002E84E80F004FF006030093094A37
:1003E00009484FF0805308BF00226946069302F087
:1003F000AFFC08B101F084FA044B1E7008B070BD68
:10040000E4A70200B1030000000000200403002064
:1004100007B5044B0093044A4023FFF769FF03B07C
:100420005DF804FB2D0400000503002038B50D4BDA
:100430000D4D002018700D4804782D5DD2B21C4679
:1004400065B1043003F014FE08B101F059FA084B0D
:100450001A7812B12378002BFBD038BD0C3003F092
:10046000D9FBF1E7450300202C23002000000020E9
:100470000403002008B50848084A0378D35C3BB160
:10048000043003F09BFD0020BDE80840FFF798BF53
:100490000C3003F065FBF6E7000000202C23002061
:1004A0000120FFF78DBF000008B5FFF7F9FF042119
:1004B000034800F0ABFB034B01225A7108BD00BF9B
:1004C000FCCE020014000020037813F0040216D0C2
:1004D00003F00303012B03D0022B09D00120704746
:1004E0000A6800880232C0F3831002440A60F5E70C
:1004F0000B684288023303EB92130B60EEE7104661
:10050000704700002DE9F04F044685B0851C00209F
:100510000F46904601F0B6FC454806683E60D0E9BB
:100520000132134401339B1B824600F21C4600F546
:10053000836900F21447AB421AD30022B8F1000FCE
:100540006FD0052363F3070264F38912DAF8001011
:10055000DAF808300B4003330D444AF8232000201A
:10056000CAF8005001F090FC012005B0BDE8F08F02
:100570000121304601F0C0FC484601F0D6FC384667
:1005800001F0D3FCDAF80400DAF808B0009000EAD1
:100590000B0003300AEB80006946FFF795FF009BD4
:1005A00050BB0BEA03020AEB820203F1020CD26891
:1005B0000192013303EA0B0B0AEB8B0B02F00302EF
:1005C000012ACDF800C0DBF80C1022D0022A16D088
:1005D0008346384601F0ACFC10B1009BCAF80430E9
:1005E0005946304601F088FCDAE901231344DAF871
:1005F000002001339B1A9EE70BEA0300C9E7BDF810
:1006000006309B0903334FEA114B0CEB9303009325
:10061000DFE7BDF80430C3F383134FEA114B6344A3
:10062000F5E7062363F3070264F39F528EE700BFEA
:100630001804002030B50A4B0A4A0B49D21AD208D6
:1006400000239A4201D1052006E031F823500468C6
:10065000A54202D10360002030BD0133F1E700BFA5
:100660007CCE0200FCCE0200500200202DE9F84FA3
:10067000224B2348FF229A600022C3F81824C3E9C2
:100680000022C3F8142483F8202402F0A8F881463D
:1006900088B91C481C4E1D4CDFF87CA002F011FAF2
:1006A000A41BE4084D46A54208D10023184A194866
:1006B0001946A3421BD14846BDE8F88F4FF0000809
:1006C000474606EBC50BBD420AD0142256F8371038
:1006D000DBF8000029F04EF90028C8BF08F1010836
:1006E0000137BC42EFD12AF825800135DBE720F83D
:1006F000231042F8041B0133DBE700BF180400207D
:100700000CCF020024A802007CCE0200FCCE020026
:1007100090020020520200205002002007B50190F4
:1007200031B9019A064B53F8320003B05DF804FB6F
:1007300001A8FFF77FFF0028F3D00020F5E700BFF6
:100740007CCE0200094B013903EBC000032909D814
:10075000DFE801F00A0204060420704700797047C0
:100760004079704700207047022070477CCE02001D
:1007700030B5114C00EB400054F821508240072363
:1007800083406A401A400D4B6A40C2F3821044F81D
:10079000212003EB8101C2F3C203834238BF034629
:1007A000C2F34220834202F0070238BF03469A4256
:1007B00038BF1A464A8030BD900200205002002007
:1007C000034BD3E90030C31A58425841704700BF69
:1007D000180400202DE9F04F85B0FFF7F1FF064621
:1007E000002840F016818C4DC5F81804BFF34F8FD8
:1007F0006868AC6800902040033005EB80006946D3
:10080000FFF762FE009B18B1D5F81824002A66D0C5
:1008100004EA0302991C013305EB8202234005EB35
:100820008303D268DB68029302F00303022B019278
:10083000009169D1BDF8063078489DF804604FEA10
:10084000931ABAF1500FD14628BF4FF0500969F3FF
:100850008F1309F10801ADF8063001F0D8FFC6F397
:10086000C2068046002800F0BB8001F0FFFF01A90E
:1008700000230822404602F00CF8009924EA010700
:100880000137BF00B94538D95FFA89F997B3FFB28C
:10089000A9EB0709214003315FFA89FBB946604F94
:1008A00005EB810108234A46404601F0F2FF37B1CB
:1008B00009F108035A463946404601F0EAFF009B19
:1008C0000AF1030A03EB9A030093D5F81834002BBE
:1008D00050D1D5F81044DFF85C9107276FE02A6803
:1008E0009A4204D86A60304605B0BDE8F08F04EA49
:1008F000030081E74A49BB46D4E72140033108237E
:100900004A4605EB8101D7E7012B69D1BDF80460A8
:100910004248C6F38311062928BF062161F38916D0
:1009200002318900ADF8046001F071FFC6F3C20620
:100930008046002854D001F099FF0023082201A925
:10094000404601F0A6FF0027BDF80420C2F3831241
:10095000BB00974203F10803B7D200994A1C21401B
:100960000331009205EB81010422404601F091FF22
:100970000137E9E7404601F07DFFFFF721FF80F0F6
:100980000100C6B2AFE7E3685A79B2B11B79BDF88E
:10099000081003EB430259F8211007FA02F3052E61
:1009A00003EA010323FA02F308BF0326B34204D388
:1009B000236841461B6820469847E3681C68002C62
:1009C000E1D1404601F056FF204601F05BFAD5F830
:1009D00018340BB9009B6B60002001F055FACCE78E
:1009E000D5F8104474B90F4B5B88012BC5D90E4B59
:1009F0000E480F49C01AC008000440F0020000F081
:100A000073F8BAE7236820469B689847E3681C6838
:100A1000E8E7002667E700BF180400200CCF0200BB
:100A2000240400206C0200207CCE0200B4CE020020
:100A300030A80200900200202DE9F74F284C804694
:100A40000F46924601A9012218469B46D4F8089009
:100A5000FFF758FD80B3019D0026A91C5E4506EBFB
:100A6000010233D100211F4801F010FA80F3100079
:100A70006A1C02EA090204EB8202000405EA090387
:100A8000033340EA1840D06014F8232068F3C5020D
:100A900004F8232034F8232066F3891224F8232055
:100AA00054F8232067F39F2244F8232002F0F80231
:100AB00042F0010204F8232094F820341BB1FFF720
:100AC00089FE0028FBD103B0BDE8F08F09EA0202DD
:100AD00004EB82025AF82630D3600136BEE700BF2D
:100AE000180400203408002000231A46FFF7A4BF92
:100AF00007B50123019201AAFFF79EFF03B05DF83D
:100B000004FB07B5CDE9002302236A46FFF794FFF3
:100B100003B05DF804FB1FB5CDE90123069B0393E9
:100B200001AA0323FFF788FF05B05DF804FB1FB59A
:100B3000CDE90023069B0293079B03936A46042397
:100B4000FFF77AFF05B05DF804FB00002DE9F347DD
:100B500080462C4CD01C8A46174601A900228008EA
:100B6000A568FFF7CFFCC8B3DDF80490A66809F1CB
:100B70000200019001362840361AB6000330B74211
:100B800004EB800034D83A46514628F087FB002118
:100B90001D4801F07BF980F3100009F101032B409F
:100BA00004EB83034FEA184242EA0042DA6005EAA6
:100BB0000903033304EB830214F8231068F3C5011F
:100BC00004F82310518867F38F11518034F82320E3
:100BD00002F0380242F0020224F8232094F8203474
:100BE0001BB1FFF7F7FD0028FBD102B0BDE8F0878D
:100BF0003246514628F052FBBA1B0AEB060104F1BB
:100C00000C00C2E718040020340800202DE9F84346
:100C10001E4B8846D3F81014054600240A46A2B994
:100C2000E9680C71D3F81014A9B9C3F81054EB6833
:100C30001A60174B174EF61AF608002703F107093A
:100C4000B74211D12046BDE8F883D2681079A0429E
:100C500016D01268E3E7C968EA6809681160D3F83A
:100C60001034DB681D60E4E719F83720EB68424573
:100C7000394628BF42461879FFF77AFD0137DFE78A
:100C800001340A2CCAD14FF0FF34DBE718040020EE
:100C90007CCE0200FCCE020010B5037A052B0C4678
:100CA0000FD0437A23B1084A0849204601F09FF942
:100CB0000749204601F09BF92046BDE8104001F0AD
:100CC0008BB9002AF8D0F3E78BA8020090A80200A5
:100CD000B0A8020073B5C38804460D4633B1144A68
:100CE00000921449144A284601F081F9217A052915
:100CF0001CD0637A4BB1A088FFF724FD0F4B10493D
:100D000053F82020284601F072F9227A0D4BA08872
:100D100053F822600021FFF701FD0B4903463246DC
:100D2000284602B0BDE8704001F061B902B070BD64
:100D30008BA802009BA8020093A8020058A80200FA
:100D400090A80200C0A80200B3A802002DE9F04359
:100D500085B01F460C9D002306460C46904695F82C
:100D60000C902B7329463846FFF7B4FFB8F1060FF5
:100D700009D8DFE808F00412181F28334000314674
:100D8000284601F034F9002229463846FFF784FF4F
:100D900085F80C9005B0BDE8F083226831462846FE
:100DA00001F025F9EFE7D4E900233146284601F0A8
:100DB0001EF9E8E7A36800933146D4E900232846EA
:100DC00001F015F9DFE7E3680193A368009331466A
:100DD000D4E90023284601F00AF9D4E723690293F5
:100DE000E3680193A36800933146D4E900232846C1
:100DF00001F0FDF8C7E76369039323690293E36891
:100E00000193A36800933146D4E90023284601F0FA
:100E1000EEF8B8E708292DE9F84F80460E46174648
:100E20001C463BD8002593F80C901D7319461046BC
:100E3000FFF750FFDFF88CA0DFF88CB0AE422FD95F
:100E400018F805205946204601F0D1F80135082D43
:100E5000F4D11949194DDFF874B0204601F0C7F8F4
:100E60004FF0000A564522D918F80A207E2A1CD8CD
:100E700012F80B1011F0970F08BF2E2210492046D0
:100E800001F0B5F80AF1010ABAF1080FEAD101221E
:100E900021463846FFF700FF84F80C90BDE8F88F34
:100EA0005146204601F0A3F8D0E72E22E6E7294676
:100EB000204601F09CF8E5E786A8020084A802001D
:100EC00088A8020082A802007CA80200C6CC02000A
:100ED000074B1B5C1F2B8ABF064A4FF0A04203F052
:100EE0001F03D2F80405D840C04300F0010070474A
:100EF00029A9020000030050074B1B5C1F2B86BF73
:100F000003F01F0305494FF0A041012202FA03F349
:100F1000C1F80C35704700BF29A90200000300503A
:100F2000074B1B5C1F2B86BF03F01F0305494FF0C7
:100F3000A041012202FA03F3C1F80835704700BF4F
:100F400029A902000003005008B50020FFF7E8FFC0
:100F50000120FFF7E5FF0220FFF7E2FF0320BDE8D5
:100F60000840FFF7DDBF08B50020FFF7C5FF0120EF
:100F7000FFF7C2FF0220FFF7BFFF0320BDE80840D4
:100F8000FFF7BABF0A4B185C1F288ABF094B4FF006
:100F9000A04300F01F00D3F804250121814021EA7D
:100FA00002000A40C3F80805C3F80C25704700BFCB
:100FB00029A9020000030050074B1B5C1F2B8ABFAE
:100FC000064A4FF0A04203F01F03D2F81005D840A4
:100FD000C04300F00100704725A902000003005043
:100FE0000B2809D00C2809D0182809D019280CBFC3
:100FF00003204FF0FF3070470020704701207047FA
:1010000002207047C20710B504460CD54FF0A0432C
:101010000322C3F83427C3F83827C3F83C27C3F8A2
:101020004027FFF791FFA3070AD54FF0A0430C22FA
:10103000C3F82C27C3F83027C3F86027C3F8642708
:1010400010BD000010B50D49A1F50E72914201D8F6
:1010500000200FE08B1ADB1003EBD3735B1002EB65
:10106000C30452F83330834205DC02DA04F108028B
:10107000ECE7606810BD2146E8E700BFC4B002009D
:1010800008B5FFF7DFFF024B002808BF184608BD70
:101090002DA9020007B5002301938DF803300DF14F
:1010A000030001F009FE9DF80330032BF7D904215A
:1010B0000DEB010001F00AFE18B9019803B05DF8CC
:1010C00004FB0020FAE708B500F064FA00F064F8C9
:1010D000002001F0C1FD10B100F0B4F8FCE7FFF70B
:1010E000D9FF28F0E7FB01F071FE10B900F0AAF873
:1010F000FCE708BD01F0E2BB08B500F0A3F8FCE78F
:1011000062B6704772B67047FFF7C4BF08B50EF0FD
:101110001DFD4FF47053584308BD38B50D461446B5
:101120005AB151B148B101F095FE2946204601F06F
:1011300067FE10B900F086F8FCE738BD10B504462C
:10114000002005F087F82046BDE8104000F062BAA4
:10115000EFF30580003018BF0120704707B54FF04E
:1011600080531A6E596E064B02F0FF021343CDE90D
:1011700000130822694628F091F803B05DF804FBDB
:101180000036CEF400487047D408002001F0ACBB14
:10119000704701F0A9BB000008B50BF0D3F848B9BF
:1011A000054B1A78054B1B78134303D0BDE8084064
:1011B0000BF0CEB808BD00BF310100203401002083
:1011C0002DE9F84307460E460BF0BCF858B1184C11
:1011D000184BDFF86890DFF86880E41AE40824040C
:1011E00044F003040EB9BDE8F883D9F80000C0F15B
:1011F0000805B542A8BF35462A463946404428F07E
:101200004DF8D9F800202A44082AC9F800202F44B4
:10121000A6EB0506E6D1084B5B88022B03D94146B5
:101220002046FFF793FC0023C9F80030DAE700BF3F
:10123000ECCE02007CCE02008802002020090020B3
:101240001809002010B50C4C226882B10B4B5B884A
:10125000022B0AD90A480B4B0B49C01AC0080004DC
:1012600092B240F00300FFF771FC00232360BDE859
:101270001040FFF7AFBA00BF20090020880200200D
:10128000ECCE02007CCE0200180900204FF01023A3
:1012900058694FF08053411C1A695B6908BF03FB12
:1012A00002F070470378022B01D80BF05FB870474B
:1012B00010B5FFF7EBFF0A4C2061FFF7E7FF094B82
:1012C0000949A0F54040E06000222046C3F808210B
:1012D00001F046F818B1BDE81040FFF70DBF10BD92
:1012E000D002002024090020D0B202004FF4804038
:1012F00070470220704708B513460A4631B143B122
:101300000146184627F0CAFF002008BD6FF00A000A
:10131000FBE76FF00B00F8E70128F8B507460C462D
:1013200016461D4612D80B44B3F5804F11D29AB120
:10133000ADB1FFF7ABFFA4F5404101EB87310144AC
:101340002A46304627F0AAFF0020F8BD6FF038008B
:10135000FBE76FF01600F8E76FF00B00F5E76FF0B2
:101360000C00F2E70128F7B507460C4616461D4665
:1013700026D80B44B3F5804F25D23AB3AB0828D01A
:10138000FFF784FFA4F5404404EB873404440AF0DB
:10139000F5FF07460028FAD10AF0E0FF2146009742
:1013A0002B4632460C4801F017F804460AF0E6FFD7
:1013B0000028FBD1201C18BF0120404203B0F0BD23
:1013C0006FF03800FAE76FF01600F7E76FF00B00E8
:1013D000F4E76FF00C00F1E7D002002001282DE9BE
:1013E000F041064626D8FFF751FF00EB8630A0F506
:1013F0004044DFF84C8004F580470AF0BFFF054603
:101400000028FAD10AF0AAFF2B46012221464046C5
:1014100001F0A2F888B90AF0B1FF05460028FAD118
:1014200004F58054A742E8D130460AF0AFFF2846C1
:10143000BDE8F0816FF03800FAE74FF0FF30F7E7D2
:10144000D002002010B5084CD4F8083153B19BB23B
:101450002246D4F8041194F80001FFF783FF00231B
:10146000C4F8083110BD00BF240900202DE9F8435D
:101470001C4C1E46D4F8083181460F4690466BB18D
:1014800094F80021824207D1D4F804211A449142F1
:1014900002D1B3F5807F01D1FFF7D4FFD4F8080162
:1014A00018B984F80091C4F80471C0F58075B5428C
:1014B00034BFADB235464DB12A464146204427F0EF
:1014C000EDFED4F808312B44C4F80831761BB6B2CF
:1014D00016B93046BDE8F883FFF7B4FF2F44A8449F
:1014E000DCE700BF2409002007B50C4B186800900A
:1014F000FFF7CCFE0422A0F580410DEB020027F09F
:10150000CDFE042269460DEB020027F0B9FEB0FAC9
:1015100080F0400903B05DF804FB00BFCAB00200D0
:1015200070B506460D461446FFF7B0FEA4F57F548D
:101530003C3C324629462044BDE87040FFF7DBBE04
:1015400000487047D0B0020002490022C0E90012F2
:10155000704700BF040003067047B0F5A27F01D1B9
:101560000AF016BF7047000008B5FFF7E9FF02F068
:1015700085F8FFF7E5FF02F08DF8024B00221A70A4
:1015800008BD00BF440A0020014B1878704700BF17
:10159000440A00201FB502A8FFF7D6FFFFF7D0FFCF
:1015A000104A02A901F0F0FF08B1FFF7A5FDFFF70F
:1015B000C7FF0368D3F81045FFF7C2FFE2B24FF44C
:1015C0007031012421FA02F202232146009402F034
:1015D000B0F8FFF7B5FF02F043F8034B1C7004B0FE
:1015E00010BD00BF5B150000440A002008B5084B81
:1015F0001B780BB9FFF7CEFFFFF7A2FF02F072F8DE
:1016000028B9FFF79DFFBDE8084002F029B808BDE2
:10161000440A0020F8B5044680B3FFF7A5FF01F0A7
:101620003BFB1948194A0378D35C4BB3043002F0F2
:10163000C5FC27F07DFC002706464FF47A75144858
:10164000144B836039466C434460C760066027F0E2
:1016500095FC26F0B1F9FFF799FD26F09BF927F0EC
:1016600067FC841BFFF7C2FF384601F0F5FA08B1AA
:10167000FFF742FDFEF714FFB4FBF5F42046F8BD7A
:101680000C3002F06DFAD4E7000000202C2300207B
:10169000300A0020591500002DE9F04F394E87B06F
:1016A0004FF00009384B1B785FFA89F5AB4202D83E
:1016B00007B0BDE8F08F354BD3F800A01AF835001D
:1016C0000124D6E9001EA0F12002C0F1200304FA93
:1016D00002F224FA03F3134304FA00FC009301EA34
:1016E0000C030293009B0EEA03030393DDE902233C
:1016F00013430AEBC50B41D0009B21EA0C012EEAF3
:101700000303C6E9001301F0BBFD1AF83550204968
:10171000A5F12002C5F1200304FA02F224FA03F332
:101720001343D1E900C2AC40134004EA0C01059315
:101730000024C3B2CDE90034009A0491C5F120031E
:10174000A5F1200122FA03F302FA01F848EA03089E
:101750001346AB401F46DDE90434444508BFBB4295
:101760000CD1DBF804304BB19BF801104A1E5142FA
:101770005141081A414241412846984709F101095F
:1017800090E700BF780A0020450A0020800A002068
:10179000700A00202DE9F0418046204800F050FBFF
:1017A000D0BB0125A8F12004C8F1200325FA03F3DA
:1017B00005FA04F41C431A4BD3E9001205FA08F5A4
:1017C00001EA050602EA040756EA07001E461DD193
:1017D000404601F055FD134BD3E9001288B129436F
:1017E0002243C3E90012D6E9002315431C43C6E98E
:1017F00000540D4B094819680022BDE8F04100F083
:10180000DDBA21EA050122EA0402EAE721EA050538
:1018100022EA0404C3E90054BDE8F0814C0A002028
:10182000780A0020700A0020480A0020042A2DE9C6
:10183000F34105460C4616463AD901F051FCD8B1A1
:101840001C4B1D491D601D4BDFF884801C701C4B18
:1018500000221E600023C1E900231A49C1E90023C8
:10186000013CE4B200260327FF2C0CD1164A17488E
:10187000002100F091FA03E001F0FAFB0028DFD02C
:1018800002B0BDE8F08123B205EBC30201A9927852
:101890008DF8052015F833008DF8066042468DF866
:1018A000047001F027FC013CE4B20028DCD0E7E73B
:1018B0000720E5E7800A0020700A0020450A002082
:1018C000480A0020780A002099160000D8B00200CB
:1018D0009517000070B5084D084E00242B789C42E7
:1018E00001D3002070BD3368012113F8340001F0EA
:1018F0007DFC0134F2E700BF450A0020800A002089
:101900001FB50021039001AA44F20100CDE90111A5
:1019100004F0BEFE05B05DF804FB0000094A5378F0
:1019200091780133DBB2994208BF002311789942C4
:101930001FBF03705078182303FB002014BF04302E
:1019400000207047840A002037B5044600200D4669
:1019500000F098FA0DF10700FFF7E0FF90B1057075
:10196000094B9DF8072044605A700024002000F0C5
:101970008BFA24B9054B4FF48012C3F8002120469E
:1019800003B030BD0424F1E7840A002000E100E048
:10199000024B4FF43C6043F001031847E0B00200F3
:1019A00038B50C4B0C4C4FF40032C3F880200125A5
:1019B0004FF48033C4F84833C4F808336560FFF748
:1019C000E7FF064BA56000241C60FFF7E1FF044B16
:1019D0001C7038BD00E100E000100140A00B0020A9
:1019E000910B0020F8B51F491F4B0025C1F840514D
:1019F000C1F84451C1F84851C1F84C51C1F80051E7
:101A0000C1F804511B684BB3D1F804451749096864
:101A1000641A24F07F442F461A68A24209D8A41AF7
:101A200015441A7CDE691AB11F74D3E9052090476A
:101A3000AEB90F4A0F4B11781B788B4205D1013399
:101A4000DBB2022B08BF0023137012780A4B43F855
:101A500022500A4B4FF48012C3F80021F8BD3346E0
:101A6000DAE700BF00100140A40B0020A00B00200B
:101A70009D0B00209C0B0020940B002000E100E057
:101A80002DE9F04FA14AA24913780978A14D994256
:101A900085B03CD00133DBB2022B08BF00231370AA
:101AA0009D4912789D4B0F6853F822003B1823F094
:101AB0007F4300220B602B6816461446944613B9E8
:101AC00042B12B6006E0196881420ED902B12B6049
:101AD000091A196001272B68DFF848A201934FF01B
:101AE0000008BEB9DFF844B266E0401A0C44D96879
:101AF000C3F800C0D3F81CE031B13A1922F07F429C
:101B0000C3E90121DE611E4601227346D7E70026A4
:101B10003746E0E73446F6697F4A63681268DFF8C3
:101B200010C2A068991A21F07F41614500F2A68099
:101B300001442160012222742A680023C4E9013390
:101B4000E361002A40F0A3802C60CAE75A1C9BF88E
:101B50000210D2B291428BF8002004BF00228BF811
:101B60000020182202FB03B31A799C68022A1CD0B9
:101B7000032A12D0012A1FD1207CE8B9D9686160FC
:101B80001A69A2605A69E2609B69A361644B1B7881
:101B9000002B18BF01466160BEE700222B6811468A
:101BA000002B67D142B12B6006E029680A468946BE
:101BB000002A5AD1002323749BF800309BF801209F
:101BC0009A42C3D12B68B8F1000F04D1019A9A420E
:101BD00001D1002F43D0002B73D0D3F800A0514D7A
:101BE0004D4BD5F804751C68DFF848813E1B98F80A
:101BF000003026F07F4603369BB94FF48033C5F89A
:101C00004433C5F80433484B4FF400324FF0010918
:101C1000C3F880211A60C5F80090FFF7B9FE88F874
:101C20000090B2452CBF5444A41924F07F44C5F859
:101C30004045D5F80435DB1B23F07F43E41B033319
:101C400024F07F44A3420AD9D5F80435C5F84035BD
:101C5000FFF79EFE344B4FF40032C3F80021304BA7
:101C600000221A7005B0BDE8F08F94422CD0914646
:101C7000D2699DE719740122DB6991E7D31A23F039
:101C80007F43834234BFC31A0023236052E7216895
:101C90001368994213D8591A1160E26154E7091A7E
:101CA000D8691A4638B1034618688842F7D3401AF3
:101CB0001860184613462160E061DC6111E71346A5
:101CC000F2E7FFF76DFECAE74C4511D1CB692B60F7
:101CD00073B9DFF844E00120CDE90212CAF8080028
:101CE000CEF800300E4B1870FFF752FEDDE90212FD
:101CF0001368D269C9F81C2012B11068034413603C
:101D00002B68994218BF4FF0010853E79C0B002045
:101D10009D0B0020A40B0020A00B0020940B0020A2
:101D2000900B00200010014000E100E0840A002038
:101D3000FEFF7F00910B002008B5FFF731FE104B2E
:101D400000200B2218809A700E4B18600E4B1870F2
:101D50000E4B18700E4B4FF48012C021C3F8802137
:101D600083F814131A6002F18042A2F56F22C2F8C0
:101D7000080583F81113074BD2F804251A6008BD33
:101D8000840A0020A40B00209C0B00209D0B002047
:101D900000E100E0A00B0020074B9B784BB132B173
:101DA00028B10368187C20B959745A61704707201C
:101DB00070470820704700BF840A00202DE9F341D6
:101DC0001C4EB37804460D4617468BB380B30429E6
:101DD0002CD9436963B3437C0020012B0CBF884698
:101DE0004FF0000800F04EF80DF10700FFF796FDE8
:101DF000D0B101230370104B4460D3F80435C0E91F
:101E00000487C0E902359DF8073073700024002074
:101E100000F03AF824B9094B4FF48012C3F80021BE
:101E2000204602B0BDE8F0810424F0E70724F7E77C
:101E30000824F5E7840A00200010014000E100E0DA
:101E4000064A92783AB130B1426922B10022027456
:101E50000221FFF779BD0820704700BF840A0020E7
:101E600072B6024A1368013313607047A80B002052
:101E7000034A1368013B136003B962B6704700BFA1
:101E8000A80B0020FFF7ECBFFFF7F2BF50E8002FD0
:101E90000B4640E8003C9CF0000FF7D1104670471D
:101EA00050E8002F42EA010340E8003C9CF0000F9C
:101EB000F6D11046704750E8003F43EA010240E87F
:101EC000002C9CF0000FF6D11046704750E8002F10
:101ED00002EA010340E8003C9CF0000FF6D11046F6
:101EE000704750E8003F03EA010240E8002C9CF0F4
:101EF000000FF6D11046704750E8003F03EB010297
:101F000040E8002C9CF0000FF6D11046704750E8D6
:101F1000003FA3EB010240E8002C9CF0000FF6D13B
:101F2000104670470121FFF7BBBF0121FFF7C3BF78
:101F30000021FFF7CBBF0021FFF7D3BF10B590B151
:101F4000D0E9012301689B1ADBB20A60013BDBB2D6
:101F5000FF2B026802D10020107110BD11684C1CCB
:101F600014600B70F2E70E20F7E738B50446002046
:101F7000FFF788FF2268616813688B4215D9591EE4
:101F8000116013F8015CA28AE36802FB0535226840
:101F9000A36811685B1A1179DBB2994200D2137100
:101FA0000020FFF771FF284638BD0025F8E738B557
:101FB000054600200C46FFF765FF2A681368591C88
:101FC0001160E968641AA98AB4FBF1F41C7000205E
:101FD000BDE83840FFF758BF10B5826804462AB103
:101FE00043690168006998470023A36010BD0EB4DF
:101FF00003B5039921B104AB01AA019300F074F871
:1020000002B05DF804EB03B070470A2938B5044606
:102010000D4602D10D21FFF7F8FFA3682268591C75
:10202000A160D554D4E901329A4204D32046BDE8D8
:102030003840FFF7D1BF38BD2DE9F84F9946DDE9AB
:102040000A431746824688460A460126BA420FD2FC
:102050004E4538BF4E4613F0010B01D164B9002440
:102060000125B9F1010F1AD909F1FF397D43F8E7CC
:10207000B2FBF7F20136E9E79B070ED5B9F1000F85
:102080000CBF30252025A642EAD2013C2946504605
:10209000FFF7BBFF002CF6D1E1E72025F3E7B8FB03
:1020A000F5F39F42E2D9DFF83C90B8FBF5F35046D8
:1020B00019F8031005FB1388FFF7A7FFB5FBF7F32B
:1020C000BD4207D2BBF1000F02D00CB1A64203D330
:1020D000BDE8F88F1D46E8E720215046013CFFF798
:1020E00094FFF2E7E6B002002DE9F74F05461746E8
:1020F0008846002900F0308118F8011B49B92B7B74
:10210000002B00F02981284603B0BDE8F04FFFF70F
:1021100063BF252940F0C080002698F800302D2BA1
:10212000424608F1010823D0302B24D02B2B25D098
:1021300000242A2B02F1010123D13B681A1D3A60C9
:102140001B680A461C4413782E2B26D101324FF00F
:102150000009104610F8011BA1F1300CBCF1090F69
:102160001DD80A2303FB0913A3F130090246F0E747
:1021700046F00106D1E746F00206CEE746F0040637
:10218000CBE711F8013CA3F130000928DBD80A2283
:1021900002FB0434303C0A46CBE74FF0000912F84A
:1021A000011B01F0FB0068289046F8D069290ED089
:1021B0004AD8582964D006D825296DD098F800301F
:1021C000002B99D19BE7632962D06429F6D13A6844
:1021D000111D3960D2F800A08AEAEA72A2EBEA7215
:1021E0004FF0010B092A5BDCCB4538BFCB462CB145
:1021F000BAF1000F01DB720700D5013CB30702D52D
:10220000B9F1000F04D0F00702D4002C4ED1002405
:10221000BAF1000F52DACAF1000A2D212846FFF761
:10222000F4FE06F00302022A05D1B9F1000F02D133
:10223000002C47D10024CDE900464B460A225146E6
:102240002846FFF7F9FEB9E773294CD014D8702956
:10225000B4D13B681A1D3A60302128461C68FFF74C
:10226000D4FE78212846FFF7D0FE00220823CDE9CE
:10227000003221461022E3E775292BD078299DD121
:1022800039680A1D3A60CDE900464B46102228E025
:102290003B681A1D3A6019782846FFF7B6FE8DE7AD
:1022A0000A230BF1010BB2FBF3F29BE7A345AFD27C
:1022B00020212846013CFFF7A8FEA6E77107B0D50C
:1022C0002B21ABE7A345B6D230212846013CFFF7CE
:1022D0009CFEADE73968CDE900460A1D3A604B46E1
:1022E0000A220968ACE73B681A1D3A6016F001063D
:1022F000D3F800A020D1BAF1000F03D0504627F048
:1023000031FB0646B44200D9C4B90AF1FF3A1EE0D7
:1023100028460136FFF779FE1AF806100029F7D192
:10232000A642BFF44BAF002C3FF448AF2021284613
:10233000013CFFF76AFEF3E70026EDE7202128467F
:10234000013CFFF762FEDDE72846FFF75EFE1AF864
:10235000011F0029F8D131E703B0BDE8F08F00007C
:1023600007B50B46A0B9154B5B886BB1144B1548EC
:10237000154AC01A0E23C0080093144B00041449D8
:1023800040F00100FEF7C7FB0E2003B05DF804FB30
:102390006BB90A4B5B88002BF6D0094B09480D4AF4
:1023A000C01AC0080E2300930004084BE7E703603F
:1023B0001B68114603B05DF804EB18477802002053
:1023C0007CCE0200CCCE0200A3B10200F6B0020027
:1023D000A8B102001FB202002DE9F3419646B0B940
:1023E000504B5B88002B00F095804F4B4F48504A74
:1023F000C01AC0080E244F4B009400044E4940F010
:102400000100FEF788FB204602B0BDE8F0816AB902
:10241000444B5B88002B7DD0434B4448474AC01A4D
:10242000C0080E2400040094424BE7E7D0F800C037
:10243000BCF1000F0DD13B4B5B88002B6CD03A4BAD
:102440003A483F4AC01AC008082400040094394B97
:10245000D4E76BB9334B5B88002B5FD0324B3348EA
:10246000384AC01AC008092400040094314BC5E75B
:102470004768D7F80480B3FBF8F708FB17376FB14C
:10248000284B5B88002B49D0274B28482E4AC01A7E
:10249000C008092400040094264BAFE78F070DD035
:1024A000204B5B88002B3BD01F4B2048274AC01A8B
:1024B000C0081024000400941E4B9FE712F0030F85
:1024C0000CD0184B5B885BB3174B1848204AC01AD6
:1024D000C008102400040094164B8FE7C768B94267
:1024E0000BD34C1E05691C44AC4206D8DCF80C40EA
:1024F000A44602B0BDE8F04160470A4B5B887BB15F
:10250000094B0A48134AC01AC0081024000400945A
:10251000084B73E70E2476E7082474E7092472E772
:10252000102470E7780200207CCE0200CCCE02009E
:10253000A3B1020008B10200A8B1020025B2020056
:1025400019B20200D8B102002BB2020055B202004B
:102550006DB2020090B20200F7B5A0B9374B5B88AC
:10256000002B63D0364B3748374AC01AC0080E24B8
:10257000364B00940004364940F00100FEF7CBFAD8
:10258000204603B0F0BDD0F800C0BCF1000F0DD163
:102590002A4B5B88002B4BD0294B2A482D4AC01A66
:1025A000C008082400040094284BE4E76AB9234BD0
:1025B0005B88002B3ED0224B2248274AC01AC00815
:1025C000092400040094214BD5E74768D7F800E0C0
:1025D0000EF1FF370F420CD0184B5B8863B3184BDA
:1025E00018481E4AC01AC008102400040094174B53
:1025F000C1E7C768B9420CD34C1E05690EFB024403
:10260000AC4206D8DCF81040A44603B0BDE8F04068
:1026100060470A4B5B887BB1094B0A48104AC01AD5
:10262000C008102400040094084BA4E70E24A7E778
:102630000824A5E70924A3E71024A1E778020020D5
:102640007CCE0200CCCE0200A3B102001BB102007E
:10265000A8B1020019B20200D8B102002EB10200E6
:1026600054B10200014B436000207047C4B2020025
:102670000846704700207047024B1868003018BFAA
:1026800001207047AC0B002008B50248FFF753FC4F
:10269000002008BDAC0B002008B510461A4626F0F5
:1026A000FDFD002008BD00002DE9F043814687B004
:1026B00014480F4616469846FFF734FC0446F0B916
:1026C0000546AE4215D10F48FFF735FCD9F8083062
:1026D0005BB102228DF800200022CDE90127CDE96F
:1026E0000326CDF8148068469847204607B0BDE819
:1026F000F08307EB053000F0BDFB0135E1E7112465
:10270000F3E700BFAC0B00202DE9F041804686B016
:1027100011480F4616461D46FFF704FC0446C8B98B
:10272000AA083146384600F0BDFB0B48FFF703FC12
:10273000D8F8083053B101228DF800200C9A059288
:10274000CDE90147CDE9036568469847204606B0C4
:10275000BDE8F0811124F9E7AC0B00202DE9F0472A
:10276000B0F806904479D2F800A09DF8208009FBCB
:1027700004F4043C06460AEB0300A0420F4688BF5F
:10278000A4EB030A191DC2F800A0B1FBF9F509FB7F
:1027900015114DB9A9EB0104544528BF5446BAF1AF
:1027A000000F04D1BDE8F0873668013DF1E7043140
:1027B0007B1970182246B8F1000F0ED0014618465A
:1027C000AAEB040A26F06AFDD145254436684C463A
:1027D0004FF0000128BF5446E1E71946F0E7FFF744
:1027E000ADBBF8B546790146721E054600239342FB
:1027F0002D6803D30024A64202D8F8BD0133F6E7C2
:102800000F682846FFF7D3FB01343946F3E72DE97B
:10281000F843CD1C868A0746FFF7A7FB043E3544E4
:102820000446B5FBF6F5F0B14FF48073EDB283804A
:10283000C680013D076081464FF00008A84512D2CE
:102840003846FFF792FB064648B16379013363715E
:1028500008F10108C9F8000007608146EEE720464C
:10286000FFF7BFFF34462046BDE8F883012104305E
:10287000FFF742BB10B5012104460430FFF747FBC8
:1028800010F0FF0F04D12046BDE81040FFF7A9BFAC
:1028900010BD1FB503920022009203AAFFF75EFF4E
:1028A00005B05DF804FB1FB503920122009203AA54
:1028B000FFF754FF05B05DF804FB0000064B10B5B0
:1028C00000241C70054B1C60BFF35F8F0449054852
:1028D00000F005F9204610BDB80B0020BC0B00200D
:1028E000F0B20200B00B002008B50020FFF7CAFAD2
:1028F000F1EE103A23F09F03E1EE103ABFF35F8F41
:10290000054B4022C3F884210020FFF7BDFA20BF09
:1029100040BF20BF08BD00BF00E100E002681368AF
:102920005268934291BFD01A80680130801888BFE6
:10293000C01A70472DE9F84303681D685C68A5421A
:1029400084BF836801331746884694BF641B5C1BB1
:10295000C2684168BC42064605FB02110CD37A43AB
:10296000404626F09BFCB3683D449D4288BF00254D
:1029700033681D60BDE8F88304FB02F94A4640460F
:1029800026F08CFCF26871683C1B624308EB09007E
:1029900026F084FC33681C60ECE7036881681A68E1
:1029A0005B688B4234BF01330023D31A584258412D
:1029B0007047F8B5044600200D46FFF763FA20463D
:1029C000FFF7EBFF10B1237C002B3DD12168A668F7
:1029D0004B684A68B24234BF013200224A6038B1C3
:1029E0002168A0680A68824234BF013200220A606E
:1029F000E2686068511E072920D8DFE801F0041062
:102A00001F141F1F1F182A78C2542046FFF786FF85
:102A100023689A68824200D29860002415E02A88D0
:102A200020F81320F1E72A6840F82320EDE7D5E9E4
:102A3000006700EBC300C0E90067E6E7294602FB38
:102A4000030026F02BFCE0E704240020FFF71CFA2B
:102A50002046F8BD70B505460E46144682B10020EA
:102A6000FFF710FA2846FFF759FFA0420AD3224683
:102A700031462846FFF75EFF00240020FFF704FAE6
:102A8000204670BD0524F8E710B504460020FFF786
:102A9000F9F920680C22002126F028FC0020BDE86E
:102AA0001040FFF7F1B910B504460020FFF7EAF92E
:102AB0002046FFF733FF04460020FFF7E5F92046E4
:102AC00010BD82680023936082681361826853613D
:102AD0008268D360826853608268136070470160C7
:102AE0000B6843604A68934204BF00234360704709
:102AF00038B5074C051E04F1080318BF1C462368AF
:102B00002BB11A6822605B6828469847F7E738BD02
:102B1000C80B002020B9054B01225A70FFF7E8BF0F
:102B2000012802D1014A9070F8E77047C00B0020DD
:102B300038B5094C23786BB908486360A3602361FA
:102B4000E36000F0CFF9054600F0D8F901232370C7
:102B5000284638BD8525FBE7C00B0020152B00005B
:102B600038B5134CA378054603F0FF0073B115B1D7
:102B70006B68012098470020FFF784F9E368013370
:102B8000E3600020BDE83840FFF77EB9FFF77AF92F
:102B900025B1226913463BB92A602561E368002B01
:102BA000ECD100F0BDF9E9E79D42F7D01B68F2E7F0
:102BB000C00B002038B5134C6378054603F0FF00C6
:102BC00073B115B16B68002098470020FFF75AF9E0
:102BD0006368013363600020BDE83840FFF754B9F3
:102BE000FFF750F925B1A26813463BB92A60A560EA
:102BF0006368002BECD100F0A5F9E9E79D42F7D01E
:102C00001B68F2E7C00B002038B5084C0020FFF726
:102C100039F96368013B6360656815B900F0A4F990
:102C200065700020BDE83840FFF72EB9C00B0020CA
:102C300007B58DF807000DF107010648FFF7B9FE4B
:102C40000448FFF7AAFE08B100F06CFC03B05DF881
:102C500004FB00BF64CE020038B50C4D2B7893B94D
:102C60000B4B0C49002808BF18460388284620F85B
:102C7000013F00F017FC044618B900F041FC0123A5
:102C80002B70204638BD8524FBE700BF240C0020B4
:102C90000BB30200312C000008B500F043FC00F03B
:102CA00049FC0348FFF7F0FE024B00221A7008BDF2
:102CB00064CE0200240C002010B504460248FFF741
:102CC000F2FE207010BD00BF64CE020010B50A46AF
:102CD00001460448FFF7BEFE044600F011FC204602
:102CE00010BD00BF64CE02001FB503788DF8003020
:102CF0004368019383688DF80830C3680393054ADD
:102D0000054B684653F8213052F82110984705B01A
:102D10005DF804FB280C0020300C00201FB5037860
:102D20008DF800304368019383688DF80830C368DC
:102D30000393054A054B684653F8213052F8211099
:102D4000984705B05DF804FB280C0020300C0020EB
:102D5000F0B5194B90F800C0DFF86CE043F82C2078
:102D6000164B16460A6943F82C204B7F0EF80C30A0
:102D70000C4607460FCC89B06D460FC594E80F008E
:102D800085E80F003B78CDF810C01EF803304BB13A
:102D9000002E0B4A694608BF3246381D01F01EF866
:102DA00009B0F0BD002E074A694608BF324607F158
:102DB0000C0000F0EDFDF3E7300C0020280C0020A3
:102DC000E92C00001D2D00002C230020074A084B91
:102DD0001360084A03F110011160074A03F1200152
:102DE0001160064A0120C2F804357047700C0020BB
:102DF000400C00203C0C0020380C002000E000407B
:102E000010B5114B04461868884202D0102226F0F3
:102E100045FA0E4B0022C3F8002101221A604FF040
:102E20008070D3F8002162B10022C3F80021084B62
:102E30001968A14203D01022204626F02FFA012063
:102E400001E00138EDD110BD3C0C002000E0004055
:102E5000380C0020024B01461022186826F01EBADA
:102E6000700C0020024AD2F80034002BFBD07047CF
:102E700000E001400A4908B50223C1F80435BFF358
:102E80006F8FBFF34F8FC1F80805FFF7EBFF0023EB
:102E9000C1F80435BFF36F8FBFF34F8F08BD00BF7C
:102EA00000E001400E4B10B50124C3F80445BFF308
:102EB0006F8FBFF34F8F01EB8204401AA14208D1FC
:102EC000074B0022C3F80425BFF36F8FBFF34F8F6A
:102ED00010BD431851F8042B1A60FFF7C3FFEDE74C
:102EE00000E00140044A137923B901211060918068
:102EF0001846704785207047740C0020074B1A68ED
:102F0000D2075FBFC02283F8002301221A604FF06E
:102F100080430122C3F81825704700BF00E100E09C
:102F2000074B00221A6082B01B680193019B4FF08F
:102F300080430222C3F8042301229A6002B0704742
:102F400004010040074B00221A6082B01B68019305
:102F5000019B4FF080430122C3F804231A6002B0A2
:102F6000704700BF00010040074B01221A604FF07C
:102F70008042D2F80C3403F00113B3F1011FF8D0F2
:102F8000024B00225A71704704000040740C00206C
:102F900007B5154B1A687AB100221A601B680093B6
:102FA000009B4FF080430122C3F808230F4B587950
:102FB00010B95A711B6898470D4B1A6882B10022EC
:102FC0001A601B680193019B4FF080430222C3F8F3
:102FD0000823064B1B68012003B05DF804EB18477B
:102FE00003B05DF804FB00BF00010040740C00203A
:102FF0000401004000F1804000F5C040002382B091
:10300000036003680193019B02B0704703681F2BA4
:1030100083BF03F01F03036001484FF0A0407047D7
:103020000003005007B5019001A8FFF7EFFF019BD7
:1030300000EB8300D0F8002722F44032C0F80027CC
:10304000D0F8003743EA0143C0F8003703B05DF819
:1030500004FB0000054B4FF0FF32072843F8202007
:1030600084BF1B1883F85820704700BF7C0C0020D9
:1030700010B5174C94F86A3043BB04F1300330218B
:10308000FF22013911F0FF0103F8012BF9D1C8B279
:10309000FFF7E0FF01310C29F9D1062200210D488C
:1030A00026F024F90C4BC02283F8062340221A6034
:1030B0004FF4BE70FFF79EFF084B4FF00042C3F87D
:1030C0000423012384F86A30002010BD0820FCE7A7
:1030D0007C0C0020E00C002000E100E000600040DB
:1030E000034B93F86A00003018BF0120704700BFFF
:1030F0007C0C0020F7B53B4E3318054693F9303071
:10310000002B6CDA8B78C3F34003002B0BBF082431
:1031100000240C200820844202D1042003B0F0BD1A
:1031200056F82470013743D1701946F8242080F8EE
:10313000304013B9331983F858508B785A0717D495
:10314000D80737D501A80195FFF760FF019B00EB79
:103150008300D0F8003723F00203C0F8003722487C
:10316000EA0805F007070123BB40875C3B43835413
:1031700088780A7810F0020028D0A40004F1804476
:1031800004F5C0442D02D4F8103523F44F3323F452
:103190004073C4F810351204D4F8103505F47C558A
:1031A00002F4403215431D43C4F810550020B5E722
:1031B0000134B0E701A84A780195FFF727FF019B8A
:1031C00003F5E073920040F82320C8E7083C34443C
:1031D00094F8605045EA821284F860209EE7082047
:1031E0009CE700BF7C0C0020E00C002073B5224C53
:1031F0002518064695F93020072A19DD224492F851
:1032000058309B09032B0FD1019001A8FFF7FEFE58
:10321000019AD0F81035D340DB0707D4022130469D
:10322000FFF700FF02B070BD012BF7D00321F6E7D6
:10323000D3B2072BF6D8930003F1804303F5C043C4
:10324000D3F8100540F00100C3F8100502F140006A
:10325000800080B2FFF7CEFE0029E3D095F9303030
:1032600054F82330002BDDD0012303FA02F2034B84
:10327000C3F80423D6E700BF7C0C002000600040A8
:1032800007B5019001A8FFF7C1FE019BD0F810051A
:10329000D84000F0010003B05DF804FB2DE9F04FC9
:1032A000002489B0CDE90244624D4FF480720121BF
:1032B00002F1804303F5C04390B21B68012B06D195
:1032C000D5F804330B4202D0FFF794FE0C430432CE
:1032D000B2F5907F4FEA4101EAD1574B1B68012BB1
:1032E0000ED14FF4BE70FFF785FE4FF0A04344F0BF
:1032F0000044D3F810350293504BD3F810350393A4
:1033000014F0FF0F1AD04E4F00250126344210D082
:10331000AB0003F1804303F5C043D3F81005D3F8A5
:10332000101557F8253023B1C1F30141C0F3052032
:1033300098470135082D4FEA4606E7D1002C75DA8B
:103340000DF1100800230493C8F804304FF0FF3348
:10335000CDE90633DFF8E8A0DFF8E89000273D4626
:1033600019F9014B631C48D0E4B2012324F0C006D4
:1033700004F0070203FA02F2F00808AB191811F87A
:10338000083C134239D00AEB0603A40993F9303004
:103390005AF823B0BBF1000F08D1032C2DD118F837
:1033A00000C04CEA020C08F800C001E0032CF6D083
:1033B00001A80196FFF72AFE019B11F8181C03F5DE
:1033C000E07C114250F82C00C0F3014005D00228E7
:1033D00013D1032C0BD1214604E003280DD1032C7B
:1033E00005D102213046FFF71DFE0135EDB2BBF1DC
:1033F000000F02D021463046D8470137042FAFD105
:10340000A5B14FF0A0430299D3F8102503F54073FE
:103410009142D3F8103502D10399994206D0029215
:103420000393049A059B0692079395E709B0BDE8BC
:10343000F08F00BF006000407C610040000300503E
:103440007C0C0020DC0C0020014B1B68184700BFDF
:10345000E80C002038B50B4B98420D4601D00020F7
:1034600038BD0020FEF70EFD074B1C7914B9012270
:103470001D601A710020FEF707FD002CEFD011200F
:10348000EEE700BF00200040E80C0020034B98420C
:1034900001BF034B00221A601A71704700200040E0
:1034A000E80C002010B5124C2278FAB9114B1960C3
:1034B000037813F0010F104B1EBFD3F8042542F020
:1034C0000102C3F80425D3F8002222F00102C3F858
:1034D00000224378094A5B01DBB282F80D334FF4D6
:1034E0000053136001232370002010BD8520FCE7EA
:1034F000F40C0020F00C002000D0004000E100E0BF
:10350000064B00221A6082B01B680193019B044B9A
:103510000122C3F804231A6002B0704700D10040B2
:1035200000D00040024A0123C2F8083353607047BC
:1035300000D00040064A0123C2F808335360054B0F
:103540004FF40052C3F88020034B00221A707047DA
:1035500000D0004000E100E0F40C0020074B002206
:103560001A6082B01B680193019B054BD3F80805D4
:10357000044B1B68C0B202B0184700BF00D1004026
:1035800000D00040F00C0020F7B50679314D0C2436
:1035900074432F193B7A002B5AD12A514A687A601A
:1035A0009C461A4647790368D4B2A74246D81B0BFB
:1035B0005AB2CC78284F002AAEBF02F1604303F024
:1035C0000F03264A4FEA4414E4B2AABF03F561434D
:1035D000D45483F8004303681B0B5CB264090122D6
:1035E00003F01F0302FA03F347F8243007684B780F
:1035F000D7F8044503F0030324F003042343C7F87A
:10360000043507688B78D7F8084503F0030324F0E6
:1036100003042343C7F8083504680B78D4F8100571
:1036200003F00F0320F00F000343C4F810350C2300
:1036300003FB065500202A7203B0F0BDA40004F578
:10364000A074013243F804C01B590193019BA9E700
:103650000820F1E7F80C002000E100E014ED00E0A4
:10366000036801221A600379034A0C2101FB03233A
:1036700002221A72704700BFF80C00200368044948
:1036800001221A6103790C2000FB03131A727047A0
:10369000F80C002038B503681B0B5AB201215209FF
:1036A00003F01F0301FA03F320320C4941F82230E2
:1036B00003680025D3F80022C3F8005203684FF0D6
:1036C000FF320446C3F80823FFF7D8FF2379044AE2
:1036D0000C2101FB03231D7238BD00BF00E100E097
:1036E000F80C00200379044A0C2101FB0323187A0B
:1036F000831E584258417047F80C002073B54FF4B0
:1037000080348C4005688BB101F150039B0000268A
:10371000EE50EB580193019B0368C3F80443036820
:1037200001F5A87143F8212002B070BDC5F8084327
:10373000F5E7F0B4076840F20115D7F800428D4074
:1037400024EA0504C7F800420568D5F8004223437F
:10375000C5F800329DF81030F0BCFFF7CFBF000075
:103760002DE9F341104C114F114E00254FF48038D4
:10377000236804F5C04080B26BB1D7F8043308FA6F
:1037800005F21A4207D00023236023680193019BAE
:10379000D6E9003198470135062D04F10404E7D13C
:1037A00002B0BDE8F08100BF40A1014000A001408F
:1037B000F80C00200023435082B043580193019B32
:1037C00002B070470A4610B54FF48E71FFF7F2FF52
:1037D000136A9168C95C136A01331362C0F81C153F
:1037E00010BD10B58B690A464FF4847123B9FFF7F9
:1037F000E1FFD0F8183510BDFFF7DCFF536AD16840
:10380000D0F81805C854536A01335362F3E7000037
:103810001FB501238DF80030044BCDE90110D3E929
:1038200000126846904705B05DF804FB040D0020C7
:1038300030B54D4AD2F8043313F4007F85B01546F5
:103840004FD0D2F82431002B4BD04FF49271104658
:10385000FFF7B0FF4FF40173C2F80833434B93F8FE
:10386000291009B9012151603F4902228DF8002039
:10387000D1F88024C1F8802403929A690292DA6810
:1038800001920022C3E906226846D3E9001290475C
:103890003548D0F81C315BB134490A6A4B699A4209
:1038A0000A464CD291F82830002B48D1FFF78AFF06
:1038B0002D4AD2F8443193B14FF4A2711046FFF76C
:1038C00079FF2A4B93F8291009B1012111609A69F7
:1038D0002AB100229A61586AD968FFF799FF05B0AA
:1038E00030BDD5F804335B07D2D5D5F80831002BAD
:1038F000CED01E4C1C482146FFF773FF636AA269B5
:103900009A422346C4D1E26952B12369E168E36077
:103910000023606AA261E3616362FFF779FFB7E7A2
:1039200094F829200AB901226A600F4A4FF4017104
:10393000C2F8081300229A61586AD968EDE74FF47B
:103940008E710948FFF736FF51690029B0D0002376
:10395000029191688DF80030019153616846D2E977
:1039600000139847A4E700BF00200040040D00208A
:103970001F2886BF00F01F00044B4FF0A04300F546
:10398000E070022243F82020704700BF000300507F
:103990002DE9F8436C4F067991462C2202FB067202
:1039A000054692F82A200C46002A40F0C680674956
:1039B0000068FFF74FFD8046002840F0C180236873
:1039C0005A1C19D01F2B4FF001028ABF60494FF0DB
:1039D000A04103F01F0302FA03F3C1F8083523687E
:1039E0001F2B86BF03F01F03594A4FF0A04203F577
:1039F000E073032142F8231061684B1C0BD01F2990
:103A000086BF01F01F01524B4FF0A04301F5E0715A
:103A1000002243F821202B68A269C3F82425217DC8
:103A2000637D2A680B43C2F86C35D4E900122B6819
:103A3000C3F81425C3F80C15237D012B32D1A168DE
:103A4000481C0BD01F2986BF01F01F01404B4FF0CF
:103A5000A04301F5E071002243F82120E3685A1CDD
:103A600019D01F2B4FF001028ABF39494FF0A041F6
:103A700003F01F0302FA03F3C1F80835E3681F2BB4
:103A800086BF03F01F03324A4FF0A04203F5E073F4
:103A9000032142F82310D4E902122B68C3F8082549
:103AA000C3F810152C237343FA18C2F80490226946
:103AB000FA50B9F1000F2DD04FF48E712868227F93
:103AC000FFF778FE4FF4A2712868FFF773FE2B68AA
:103AD0002049C3F804132968090B4BB2002BAEBF71
:103AE00003F1604301F00F011B4B4FEA4212D2B2C7
:103AF000AABF03F561435A5483F800232B681B0BBC
:103B00005AB2012103F01F0301FA03F352091349CA
:103B100041F822302B680422C3F800252C2303FB34
:103B200006730022C3E9062283F829205A61012284
:103B300083F82A204046BDE8F8834FF00808F9E7EB
:103B40004FF01108F6E700BF040D002031380000E7
:103B5000000300508000020014ED00E000E100E0EE
:103B60002DE9F04103680479274D0022C3F80025B0
:103B70002C2303FB045301465B6883B10368234A8B
:103B8000C3F8082303681B0B5AB20120520903F043
:103B90001F0300FA03F320321D4840F822300B685F
:103BA0004FF0FF32D3F80C05D3F81485D3F808652D
:103BB000D3F81075C3F81425C3F80C250B68904290
:103BC000C3F80825C3F8102501D0FFF7D1FEB8F1DE
:103BD000FF3F02D04046FFF7CBFE7A1C02D03846AA
:103BE000FFF7C6FE731C02D03046FFF7C1FE08681F
:103BF000FFF74CFC2C2303FB0454002384F82A30E9
:103C00006360BDE8F08100BF040D00208402020063
:103C100000E100E02DE9F047214B07794FF02C0936
:103C200009FB0734064665699846002D36D1626166
:103C3000A160256284F828504FF48E710068FFF768
:103C4000B9FD336801229A6021463068FFF7BAFD5A
:103C50006368A1468BB9D6F800A0226A63699A42CC
:103C600011D33368D3F81C21002AFBD00122DA607B
:103C70002C2303FB078700237B612846BDE8F087E0
:103C800094F8283043B9DAF81C31002BF8D04946B3
:103C90005046FFF797FDE0E70F25E9E71125ECE730
:103CA000040D00200023435082B043580193019B30
:103CB00002B070471FB501238DF80030044BCDE9E9
:103CC0000110D3E900126846904705B05DF804FB87
:103CD000300D00207FB5374AD2F82461002E48D03D
:103CE00010464FF49271FFF7DDFF02238DF800308C
:103CF000D2F88034C2F880340393D2F83C35029372
:103D00002D4BDA6801920022C3E906226846D3E906
:103D100000129047274AD2F844317BB14FF4A27188
:103D20001046FFF7BFFF244B996939B10021C3E961
:103D30000611D968D2F83C05FFF7BCFF1D4AD2F83E
:103D40002031A3B14FF490711046FFF7ABFF1A4B2F
:103D5000596961B1D2F84C150291002299688DF829
:103D6000002001915A616846D3E90012904704B0DF
:103D700070BDD2F81031002BCCD04FF488711046B2
:103D8000FFF790FF0C4BD2F83C0599698842C1D1EE
:103D9000DC69D96864B1D2F8005225F02005C2F878
:103DA00000521A699C61DA60DE61FFF783FFB1E7B8
:103DB0009C61FAE700200040300D00201F2886BFDC
:103DC00000F01F00044B4FF0A04300F5E07002220A
:103DD00043F82020704700BF000300502DE9F8434E
:103DE000704F06799146242202FB0672054692F82E
:103DF00020200C46002A40F0CE806B490068FFF777
:103E000029FB8046002840F0C98023685A1C19D03D
:103E10001F2B4FF001028ABF64494FF0A04103F00D
:103E20001F0302FA03F3C1F8083523681F2B86BF6E
:103E300003F01F035D4A4FF0A04203F5E073032136
:103E400042F8231061684B1C0BD01F2986BF01F07C
:103E50001F01564B4FF0A04301F5E071002243F8DB
:103E600021202B68A269C3F82425217D637D2A685F
:103E70000B43C2F86C35D4E900212B68C3F80C253C
:103E8000C3F81415237D012B32D1A168481C0BD037
:103E90001F2986BF01F01F01444B4FF0A04301F5DD
:103EA000E071002243F82120E3685A1C19D01F2B2F
:103EB0004FF001028ABF3D494FF0A04103F01F03BC
:103EC00002FA03F3C1F80835E3681F2B86BF03F03D
:103ED0001F03364A4FF0A04203F5E073032142F876
:103EE0002310D4E902122B68C3F80825C3F8101573
:103EF00024237343FA18C2F804902269FA50B9F1E6
:103F0000000F37D04FF488712868227FFFF7CAFE70
:103F10004FF490712868FFF7C5FE4FF4927128683E
:103F2000FFF7C0FE4FF4A2712868FFF7BBFE2B68B5
:103F30001F49C3F804132968090B4BB2002BAEBF0D
:103F400003F1604301F00F011A4B4FEA4212D2B263
:103F5000AABF03F561435A5483F800232B681B0B57
:103F60005AB2012103F01F0301FA03F35209124967
:103F700041F822302B680822C3F80025242303FBD4
:103F800006730022C3E906225A61012283F8202029
:103F90004046BDE8F8834FF00808F9E74FF01108F4
:103FA000F6E700BF300D0020D53C000000030050B4
:103FB0001003020014ED00E000E100E02DE9F04103
:103FC00003680479274D0022C3F80025242303FB4E
:103FD000045301465B6883B10368234AC3F808238E
:103FE00003681B0B5AB20120520903F01F0300FAA9
:103FF00003F320321D4840F822300B684FF0FF32A7
:10400000D3F80C05D3F81485D3F80865D3F81075E8
:10401000C3F80C25C3F814250B689042C3F8082593
:10402000C3F8102501D0FFF7C9FEB8F1FF3F02D059
:104030004046FFF7C3FE7A1C02D03846FFF7BEFEAB
:10404000731C02D03046FFF7B9FE0868FFF71EFA6E
:10405000242303FB0454002384F820306360BDE86C
:10406000F08100BF300D00201003020000E100E0ED
:1040700001F06043B3F1005F2DE9F041064634D111
:104080001C4B0779242505FB073598466C6974BBE2
:104090006A61A96000684FF49071FFF703FE4FF466
:1040A000AC713068FFF7FEFD33686A69A968C3F830
:1040B0004415C3F84825336801229A606B686BB9D0
:1040C0003368D3F82021D3F8584152B9002CF8D0E6
:1040D0000F24242303FB078700237B612046BDE8D0
:1040E000F081002C18BF0F24F3E71024F6E7112409
:1040F000F4E700BF300D00200220FCF743BF0000B2
:104100002DE9F04781460D46FCF76AFF0328044677
:1041100004D8012D04D025B3022D2FD0BDE8F0879F
:10412000194D47003A18A918AE5C4A7852B1DFF829
:104130006880164842464FF40041FDF73FFE08B93B
:1041400088F800903B192B449A78114B1A55002E91
:10415000E4D0104B1B68002BE0D03046BDE8F047A0
:1041600018470A48FDF76CFE074B04EB4402134462
:104170009E78074B1B5DB342D0D1E8E7024B00EBC2
:1041800040041C446678E2E7B80D0020780D00205A
:10419000D10D0020CC0D0020540D0020022100780C
:1041A000FFF7AEBF08B5094B1B7853B10020FCF7F1
:1041B000B7FE0120FCF7B4FE0320BDE80840FCF781
:1041C000AFBEBDE80840FCF7BFBE00BF550D0020E4
:1041D000F8B57B4C237805461BB100232370FFF70D
:1041E000E1FF172D00F28880DFE805F00C17174378
:1041F00054657680888D888D959A9A9A9A9AC4C9C2
:10420000D1D9E4E4FFF7CEFF6E48FDF719FE6E4BFF
:10421000002204461A702046F8BD0020FCF758FE24
:10422000F8B10020FCF77CFE022D0CBF4FF4E161D9
:104230004FF47A61644B1D704FF400404FF4FA74F0
:104240000025E0FB01454FF47A7200232046294601
:1042500026F03AF9002201465A48BDE8F840FDF739
:10426000ADBDFCF749FE022D0CBFC8214FF4C8714B
:10427000E0E70020FCF72CFE40B10020FCF750FEE8
:104280004FF44871504B03221A70D5E7FCF734FE07
:10429000C821F7E70020FCF71BFE38B10020FCF72F
:1042A0003FFE4FF47A61484B0422EDE7FCF724FE11
:1042B0004FF4C871F7E70020FCF70AFE48B1002070
:1042C000FCF72EFE404B05221A7041F69A1100228F
:1042D000C2E7FCF711FEF5E70020FCF753FE3A4B6E
:1042E00006221A70002240F6CD41B5E70020FCF707
:1042F00003FE354B07221A7000248CE70120207042
:10430000FCF740FEEEE701202070FCF73BFE0022A8
:104310004FF48041A0E7FCF726FE2B4B0C22EAE786
:104320002A482B4EFDF78CFDD5F1110504461CD013
:10433000D8B9012D13D0C8235D434FF400474FF483
:10434000FA7000214FF47A720023C7FB050126F0B2
:10435000BBF8224601461D48FDF730FD0446022009
:10436000FCF7CAFD0123337055E70220FCF7D8FDA6
:104370000023F8E7FFF716FF134B1222BBE7FFF706
:1043800011FF0020FCF7B8FD0F4B1322B3E7FFF736
:1043900009FF0120FCF7B0FD0B4B1422ABE7FFF740
:1043A00001FF0020FCF7A8FD0120FCF7A5FD064B4E
:1043B0001522A0E7FCF7D7FD034B1D709CE700BF5B
:1043C000C80D0020980D0020D00D0020580D0020B1
:1043D000550D0020044B1B68DB0703D5034B1878F1
:1043E000FFF7F6BE704700BFC40D0020D00D0020BF
:1043F000032801D8FCF7E0BD0020704738B51C4BFE
:1044000018601C4B10F00204054619601AD01A4BB4
:104410001A480E221A700F22DA7010229A71112295
:104420005A72042140F26662FDF700FA044648B968
:10443000FDF750FA044628B90146114A1148FDF724
:10444000ABFC0446EB0711D50120FCF7DBFD6CB992
:1044500021460D4A0D48FDF79FFC044630B90C4A31
:104460000C480121BDE83840FDF796BC204638BD18
:10447000C40D0020CC0D0020B80D00204CB302006C
:104480009D41000070B30200D543000074B30200E8
:10449000F94000006CB3020010B54FF4A472002183
:1044A000044607F0CBFC0C2107F05AFB4FF0FF321B
:1044B0004270C27004220271012242710222827192
:1044C0000622027208228272074A00236FF002015C
:1044D000017081704372C372C371538020460349D7
:1044E000BDE8104013F01ABEC41E0020F1440000C5
:1044F000F7B540F225120021054607F09FFC014662
:104500000646002007F0BDFC04461321304607F0A4
:10451000D1FB6378002B44D12379002B41D028496B
:104520004B88002B3DD16379264CB0F801000B700D
:1045300048806188022982B209D923492348401A58
:10454000C0080004224940F00300FCF7DAFA002218
:10455000FF2120480BF092F846420746F6B16388E7
:104560009BB13046FCF78CFD184C174B1A49E41AE6
:10457000E40840F2371324040193184B00933246A9
:10458000034644F00100FCF7D2FAFCF723F90028B7
:10459000FBD1C7F59C402030FDF7B2F90320FCF7B2
:1045A000ABFC55B14FF49F720021284607F046FC42
:1045B00003B0BDE8F04007F01FBA03B0F0BD00BF84
:1045C000C41E00206C0200207CCE0200B4CE02008B
:1045D00099B302003D490000B4B30200CBB302001E
:1045E000F7B55F4E05460BF0B1FAB2685D4B841A21
:1045F0009C4288BF141A412CB5FA85F7284694BF0F
:10460000002401247F09FFF7F3FE68BB44BB3B464F
:1046100001222146544807F07BF945420746FDB187
:10462000524B5B889BB12846FCF72AFD504C514BFE
:104630005149E41AE4084FF4CD73240401934F4B1D
:1046400000932A46034644F00100FCF770FAFCF799
:10465000C1F80028FBD1C7F59C402030FDF750F988
:104660000023337103B0F0BD002C54D03B4601222F
:104670000021434807F04CF946420746FEB13B4B48
:104680005B889BB13046FCF7FBFC394C394B3A490F
:10469000E41AE4084FF4D37324040193374B0093D6
:1046A0003246034644F00100FCF741FAFCF792F869
:1046B0000028FBD1C7F59C402030FDF721F92946A1
:1046C000132230480AF00AFE45420646002DC9D0A2
:1046D000264B5B889BB12846FCF7D2FC244C254B2B
:1046E0002549E41AE4084FF4D47324040193234BBE
:1046F00000932A46034644F00100FCF718FAFCF741
:1047000069F80028FBD1C6F59C40203003B0BDE815
:10471000F040FDF7F5B8294603221A480AF0DEFDFD
:1047200045420646002D9DD0104B5B889BB1284624
:10473000FCF7A6FC0E4C0F4B0F49E41AE4084FF4AB
:10474000D773240401930D4B00932A46034644F08B
:104750000100FCF7ECF9FCF73DF80028FBD1D2E7AB
:10476000C41E0020FEFFFF7F154800006C020020E1
:10477000B4CE02007CCE0200B4B30200CBB3020080
:1047800089470000E145000070B5C2220C4686B0A2
:10479000002107F053FB1A4B5B88B4FA84F5022B17
:1047A00006464FEA55150AD91648174B1749C01A3D
:1047B000C0080004224640F00300FCF799F90024E9
:1047C000224600940223112130460CF0B1F80F2349
:1047D00043704FF482720223082105708370C47005
:1047E000CDE9022101220192094A049412F8021B28
:1047F0000091011D30460BF04BFF06B070BD00BFAD
:104800006C020020B4CE02007CCE020038B402005C
:10481000C41E002070B5A2220C4686B0002107F00D
:104820000DFB174B5B88261C18BF0126022B054683
:104830000AD91448144B1549C01AC008000422466E
:1048400040F00300FCF754F900243346224600945C
:10485000112128460CF06CF84FF482730622CDE942
:1048600002320B4A04940123019312F8023B009395
:104870000146022328460BF00BFF06B070BD00BFB7
:104880006C020020B4CE02007CCE020020B40200F4
:10489000C41E002073B50546D0B1E722002107F001
:1048A000CDFA0B2107F006FA0B220021044624F072
:1048B0001DFD03F09FFB03882381A37A00216FF382
:1048C000C7132846A37202B0BDE8704014F056BA70
:1048D000144807F08CF8454206460DB3124B5B882E
:1048E00093B12846FCF7CCFB104C114B1149E41A4C
:1048F000E408F523240401930F4B00932A46034652
:1049000044F00100FCF713F9FBF764FF0028FBD12A
:10491000C6F59C40203002B0BDE87040FCF7F0BF07
:1049200002B070BD954800006C020020B4CE0200B9
:104930007CCE0200B4B30200CBB30200F7B504464C
:10494000002860D0434D6B88022B09D94248434B65
:104950004349C01AC008000440F00300FCF7C4F843
:10496000822221463F480AF0B9FC46420746F6B18A
:104970006B889BB13046FCF783FB374C374B3A4989
:10498000E41AE40840F2691324040193374B0093BE
:104990003246034644F00100FCF7C9F8FBF71AFF62
:1049A0000028FBD1C7F59C402030FCF7A9FF40F25E
:1049B000451200212E480AF091FC46420746002E7F
:1049C00045D06B889BB13046FCF75AFB224C234BF9
:1049D0002549E41AE40840F26B1324040193234BA5
:1049E00000933246034644F00100FCF7A0F8FBF7C1
:1049F000F1FE0028FBD1C7F59C40203003B0BDE894
:104A0000F040FCF77DBF1A4806F0F1FF454206462C
:104A1000EDB1104B5B889BB12846FCF731FB0E4C87
:104A20000E4B1149E41AE4084FF4B87324040193BF
:104A30000E4B00932A46034644F00100FCF777F83A
:104A4000FBF7C8FE0028FBD1C6F59C40D5E703B0B4
:104A5000F0BD00BF6C020020B4CE02007CCE02008C
:104A6000DBB3020099440000B4B30200CBB30200F0
:104A70003D49000073B5164E7388EBB1154B164CCB
:104A8000164D1749E41AE408240444F001044FF4D5
:104A900082732A462046FCF734F8738863B10120FC
:104AA000FCF7EEFA4FF48273CDE90053012203467E
:104AB0000C492046FCF73BF8FBF78CFE0028FBD1A5
:104AC00044F6216002B0BDE87040FCF719BF00BF9A
:104AD0006C0200207CCE0200B4CE0200CBB30200F8
:104AE000F5B30200B4B3020073B5284C63880246E4
:104AF000002B49D00E2812D00F2843D0244B5B88BE
:104B0000022B41D92348244B24491B1ADB081B04E0
:104B100043F0030002B0BDE87040FBF7E9BF002599
:104B200023798BBB012323710BF010F82946A06079
:104B300003221B480AF0D2FB4542064625B3144B1C
:104B40005B889BB12846FCF79BFA134C114B154927
:104B5000E41AE40840F2D71324040193124B0093A3
:104B60002A46034644F00100FBF7E1FFFBF732FE63
:104B70000028FBD1C6F59C40203002B0BDE8704053
:104B8000FCF7BEBE0125CBE702B070BDC41E0020FD
:104B90006C0200207CCE0200B4CE020078B302008A
:104BA000E1450000B4B30200CBB3020010B50446E7
:104BB00010F0CCFE20B12046BDE81040FFF76ABEE1
:104BC000022000F047FE012801D0FFF753FF4CB14F
:104BD00020464FF48D72002107F030F9BDE81040F7
:104BE00006F00ABF10BD0000F0B585B0002503A98E
:104BF0000446039511F082F94FF4FC7206462946EB
:104C0000204607F01BF9062EB0F9042017D8052E10
:104C10008A4D2CD2032E00F0D280884B5B88022B69
:104C200040F2C280864B87488749C01AC0080004FA
:104C3000134640F003003246FBF763FFB4E0132E47
:104C400000F0E980142EE8D1002A00F0AD807B4B03
:104C50005B88012B40F2A880794B7A487B49C01AC7
:104C6000C008000440F00200FBF73EFF9CE06B88A8
:104C7000002A64D1022B09D97248714B7449C01AB9
:104C8000C008000440F00300FBF72EFF0220FCF7F1
:104C900033F9704B5B88002B40F0868082222146DE
:104CA0006D480AF01BFB46420746F6B16B889BB184
:104CB0003046FCF7E5F9634C614B6849E41AE408B7
:104CC0004FF4027324040193654B0093324603466C
:104CD00044F00100FBF72BFFFBF77CFD0028FBD124
:104CE000C7F59C402030FCF70BFE40F24512002136
:104CF0005C480AF0F3FA46420746F6B16B889BB16E
:104D00003046FCF7BDF94F4C4D4B5449E41AE408CA
:104D100040F20A2324040193514B00933246034688
:104D200044F00100FBF703FFFBF754FD0028FBD123
:104D3000C7F59C402030FCF7E3FD05B0F0BD4BB15A
:104D400040483F4B4849C01AC008000440F00100E9
:104D5000FBF7CEFE0220FCF7E3F841220021434896
:104D60000AF0BCFA46420746F6B16B889BB1304662
:104D7000FCF786F9334D324B3849ED1AED0840F215
:104D800013232D040193364B00933246034645F01E
:104D90000100FBF7CCFEFBF71DFD0028FBD1C7F59A
:104DA0009C402030FCF7ACFD002CC6D04FF40F72B5
:104DB0000021204607F042F806F01EFEBDE7E2B9EA
:104DC0000220FCF7ADF86B88039E022B0AD91D4820
:104DD0001B4B32792649C01AC008000440F003007A
:104DE000FBF786FE3379002BDED1022000F032FD86
:104DF0000128D9D0FFF73EFED6E76B88002BD3D031
:104E00000F4B10481B49C01AC008000440F00100B5
:104E1000FBF76EFEC8E7094B5B88022B0BD9084BEA
:104E200008481549C01AC008039B00045A6840F09E
:104E30000300FBF75DFE0AF019FEB5E76C020020E7
:104E40007CCE0200B4CE020015B50200E9B4020027
:104E500054B40200C41E002099440000B4B3020000
:104E6000CBB302003D49000070B40200AD4B00001E
:104E700093B40200B0B40200D4B402007FB5FCF7D2
:104E80005BFF08B1FCF73CFD4FF400410020FBF74D
:104E9000EDFB08B1FCF734FDFBF706FB30490320BE
:104EA000FFF7ACFA08B1FCF72BFDFCF74DF82D4BE2
:104EB00000241C702C4B1C802C4B1C7007F036F906
:104EC00007F036F902A8FCF749F902A80AF0C0FE7B
:104ED0004FF480300AF0E2FE204600F043F906204D
:104EE00009F0D4FEC32009F0D7FE0220FFF780FAB4
:104EF00080F00100C0B20AF09FFE0C2221461C483F
:104F000024F0F4F91B4800F04BFA0AF0CAFE4542BF
:104F10000646FDB1184B5B889BB12846FCF7B0F8FC
:104F2000164C174B1749E41AE40840F2672324048F
:104F30000193154B00932A46034644F00100FBF70A
:104F4000F6FDFBF747FC0028FBD1C6F59C4020305E
:104F5000FCF7D6FC0AF0A7FEFBF73CFCFAE700BF23
:104F6000E94A000031010020320100203401002014
:104F7000C41E0020A90000206C020020B4CE020054
:104F80007CCE0200B4B30200CBB30200054B1B6819
:104F9000082B01BF044B1868B0FA80F0400918BF15
:104FA00000207047300100103401001008B54FF0A8
:104FB00080430022C3F80C21C3F81021C3F8382520
:104FC0004FF0805203F54043D2F80414C3F8201583
:104FD000D2F80814C3F82415D2F80C14C3F8281515
:104FE000D2F81014C3F82C15D2F81414C3F83015E5
:104FF000D2F81814C3F83415D2F81C14C3F84015AD
:10500000D2F82014C3F84415D2F82414C3F8481574
:10501000D2F82814C3F84C15D2F82C14C3F8501544
:10502000D2F83014C3F85415D2F83414C3F860150C
:10503000D2F83814C3F86415D2F83C14C3F86815D4
:10504000D2F84014C3F86C15D2F84424C3F8702584
:10505000FFF79CFF10B1384B384A1A60FFF796FFF4
:1050600018B1374BFB22C3F81825FFF78FFF48B163
:105070003449354B0A681B6822F00F0203F00F0316
:1050800013430B60FFF782FF18B1304B4FF40072EF
:105090001A604FF08043D3F80024D20744BF6FF06A
:1050A0000102C3F800242A4AD2F8883043F470037E
:1050B000C2F88830BFF34F8FBFF36F8F4FF01023CC
:1050C000D3F80022002A03DBD3F80432002B2FDAB6
:1050D000204B0122C3F80425D3F80024002AFBD07A
:1050E0004FF010221221C2F80012D3F80024002A37
:1050F000FBD04FF010231222C3F80422154B1A469E
:10510000D3F800140029FBD00021C3F80415D2F80D
:105110000034002BFBD0BFF34F8F0D490E4BCA68F4
:1051200002F4E0621343CB60BFF34F8F00BFFDE793
:105130000A4B0B4A1A6008BD8C5600404881030098
:1051400000F00040E40E004058020010409602407B
:1051500000ED00E000E001400400FA052C01002011
:105160000090D00307B500BB124B0C22C3F82427D4
:105170000A22D3F81015013AC1F340210191F8D168
:10518000019B73B90C4B5B88022B09D90B480C4B64
:105190000C49C01AC008000440F00300FBF7A4FC4F
:1051A0000120044B0222C3F8242703B05DF804EB6E
:1051B0000AF056BD000300506C020020B4CE02007D
:1051C0007CCE020035B5020070B5194CB4F8F65526
:1051D00084F8023625F00705054305F0E70545F498
:1051E0008045A4F8F655DD01022845EA810134BF67
:1051F0000226002641EAC2013143342284F8F81520
:1052000084F8F9250021122284F8FA2588424FF00B
:105210006C0284F8FB2542F6412218BF4FF4285255
:10522000A4F8FC15A4F8FE25A4F8001670BD00BF74
:105230003023002030B50A4DB5F8034624F00F04A2
:10524000204320F0F00040EA011020F4706040EAB2
:105250000220C0F30B0040EA0330A5F8030630BD7E
:105260003023002070B583798B4205460C461646E4
:1052700004D8A9214FF4496006F012FE043425F841
:10528000146070BD70B5C3798B4205460C46164656
:1052900004D8B7214FF4496006F002FEAB791C44F4
:1052A000043425F8146070BD70B51C4D1C4E95F883
:1052B0000A260023082102F0F00285F80B1663F39A
:1052C0000712092185F80536A5F80636A5F808362F
:1052D00085F80C1685F80A2685F848361C4605F22E
:1052E000056536F81420E1B228460134FFF7BAFF0D
:1052F000082CF6D10B4E0C4D0024325DE1B228464D
:105300000134FFF7BFFF092CF7D10C23032207213B
:105310000020BDE87040FFF78DBF00BF30230020A4
:105320006CB502007CB502003529002008B50A4B97
:1053300093F87921003218BF01221146012302207F
:10534000FFF742FF01220C2311460020FFF772FFF6
:10535000BDE80840FFF7A8BF3023002007B50F4B7A
:1053600093F84826052A0AD8511C83F8481603EBFF
:105370008203C3F83006002003B05DF804FB042369
:10538000019200934FF0FF3040F219134FF449623D
:1053900001210AF0CFFA6FF01C00EDE73023002066
:1053A0002DE9F7430AF03CFD0BF0E8FA83681B781F
:1053B0000193042300934FF4496240F22713012123
:1053C0004FF0FF300AF0B6FA00260BF0D7FA8368E8
:1053D0001B78F4B2A3420CD80AF046FD00286CD129
:1053E00040F23F114FF4496003B0BDE8F04306F0CE
:1053F00057BD0BF0C3FA8368D3F8013053F824305B
:10540000D3F81500FFF7AAFF0BF0B8FAD0F8B030C8
:10541000A50063B10BF0B2FAD0F8B0700BF0AEFAA1
:105420008368D3F8013053F824301878B847002740
:105430000BF0A4FA8368D3F801305B591B7CFCB2F3
:10544000A34201D80136C0E70BF098FA8368D3F87D
:1054500001305B59D3F81130C4EB04142344D3F862
:105460000B305BB10BF08AFA8368D3F801305B59DB
:10547000D3F811302344D3F80B3098470BF07EFA61
:105480008368D3F801305B5993F800800BF076FA0B
:105490008368D3F801305B59B3F801900BF06EFAD2
:1054A0008368D3F801305B59D3F811204946224470
:1054B00040460FF0BFF90137BAE703B0BDE8F0830B
:1054C00013B540F219224FF4D571044606F0B6FC2C
:1054D000052106F0EFFB0A4BD3F8D422026093F8C3
:1054E000DC22027193F8492683F84C2600230093AE
:1054F0001A462146034809F077FE02B010BD00BFEE
:1055000030230020AD6600002DE9F341694D95F888
:10551000DD3204462E46F3B995F8C622402A13D050
:1055200095F8E522C5F8D432012161F3430285F8EC
:10553000C7120146604885F8E52200931A4609F033
:1055400053FE02B0BDE8F08185F8DD2200931A46D3
:1055500021465A48F3E7402B05D10023014600932A
:105560001A465748EBE7102B20D1202385F8DD326F
:1055700095F8C732012B08D195F8EB32002262F37F
:10558000000385F8C72285F8EB3296F8E7120D295B
:10559000D7D096F8C72200235242204610F0DEF9F9
:1055A000002300931A4621464648C8E795F8C622CC
:1055B0001A40D10705D50023014600931A464248F8
:1055C000BDE712F0020164D014F002FD0746002886
:1055D00053D195F8C782B8F1030F0DD195F8C832B1
:1055E000DB0727D50A230146204685F87C3102B027
:1055F000BDE8F04102F0ACBEB8F10A0F1AD1102399
:10560000DB224FF4D571204685F8DD3206F016FC1A
:10561000414606F04FFB08223946064623F066FE57
:1056200020463772777285F87C8102B0BDE8F04180
:1056300004F0B4B896F8C81211F001010AD096F837
:10564000DD3213F0020381D0002300931A46214675
:105650001E4874E796F8EB2212F0020308D01023DC
:1056600086F8DD32032386F8C73200910B466EE7D9
:1056700000931A462146164861E74FF486724FF4AC
:10568000D571204606F0DAFB02B0BDE8F04106F025
:10569000B3B91F2B03D85A0085F8DD22E5E7202394
:1056A00085F8DD3200283FF44CAF40F22F124FF462
:1056B000D571E7E730230020295A00000955000082
:1056C000FD5F0000D16B010005610000CD570000B7
:1056D000D556000037B53A4C94F8E53203F00E0188
:1056E0000229054638D1D4F8CC22AAB394F8452231
:1056F00012F0010230D162F3430384F8E532012352
:1057000084F8C73211F07EFB10B394F8B136012B48
:105710001ED1D4F8D422DAB994F87A2103FA02F22D
:10572000C4F8D42294F8E52263F3430284F8E52216
:10573000D4F8D4321BB9D4F8CC32C4F8D432002314
:10574000204800931A46294609F04EFD03B030BDAB
:105750000023C4F8D432EBE794F84532DB0719D4C0
:1057600079B9D4F8D032ABB194F8E532032262F3C0
:10577000430384F8E532012384F8C732D4F8D032E9
:10578000DBE7022906D1D4F8D0321BB1D4F8CC32F1
:10579000002BE9D0032384F8C73294F8E5320A4895
:1057A000012262F3430384F8E53294F8DD3293403A
:1057B00084F8DD32002300931A462946C4E700BF6F
:1057C00030230020C15400000955000038B540F2D4
:1057D0008A224FF4D571054606F030FB042106F00D
:1057E00069FA00210446042223F080FD6FF00303D0
:1057F00023704FF0FF336370B423A3700123E37071
:1058000028460249BDE8384013F008BB1158000093
:1058100013B54FF427724FF4D571044606F00EFB12
:10582000B0F90420094B12B1092283F8C72293F87A
:10583000DD22520083F8DD2234B1002300931A46A2
:105840002146034809F0D0FC02B010BD30230020EF
:105850000955000007B5144A92F8DD3213F0DF0352
:1058600020D182F8DD3292F8C83282F8C60213F0F5
:10587000010309D100931A4619460C4809F0B4FCFB
:10588000012003B05DF804FB022807D1012382F850
:10589000C7320A2382F8DD0282F8E732044806F0B4
:1058A000A6F8EDE70020ECE730230020315E010090
:1058B0000955000008B50B4B93F84522520706D452
:1058C00015F034F8437843F00103437008BD93F8B2
:1058D000B53B9B07F4D415F029F8437823F0010376
:1058E000F3E700BF3023002070B54A4C86B0FFF7C5
:1058F000E1FF94F8EB3202216FF3820304F5157097
:1059000084F8EB3214F0D6FD002864D094F8EB3222
:1059100043F0040384F8EB3294F8E0303E493F480A
:10592000032B08BF02234FF0080208BF84F8E030C1
:1059300023F0A6FC002864D094F88453C5F38005B6
:1059400094F88032142B5ED8EDB26DB10822344940
:10595000344823F095FC94F8E532B0FA80F0400921
:1059600060F3000384F8E53294F8EB3265F3410309
:1059700084F8EB322DB114F0D9FF437823F0010302
:10598000437094F8E5322449244894F8E06043F0E9
:105990008003082284F8E53223F072FC94F8EB329D
:1059A0000295C3F38003059394F884330196003085
:1059B000C3F3800318BF01200493142303900093C2
:1059C0004FF4D5724FF4D07301214FF0FF3009F03E
:1059D000B1FF06B070BD082204F5B87104F515706A
:1059E00023F04EFC002891D094F8E532DB078DD4EB
:1059F00008220B4904F5157023F042FC002885D0DD
:105A00008AE705469CE7002D9ED094F8EB52C5F33B
:105A1000800599E730230020ADBB02000824002058
:105A2000A5BB02008425002037B50546FFF75CFFC3
:105A30004C4B93F8EB2212F0020F1C4630D093F837
:105A4000C822D20713D593F8C622042A0FD10B22FD
:105A500083F8E722102283F8DD22002D6BD000238B
:105A600000931A462946404809F0BEFB63E094F8CB
:105A7000C632012B0DD04FF4E9724FF4D571284690
:105A800006F0DCF90123D4F84822384910F02CFB49
:105A90000025062384F8E732012384F8DD32DCE7B1
:105AA0000822334903F1D80023F0EAFB10BB94F835
:105AB000843358071ED494F8EB32590705D494F870
:105AC000C632042B39D10B23E4E7082204F5B87160
:105AD00004F5157023F0D4FB0028F0D094F8E532DB
