:10000000801A00205D900200D58B0000D98B000083
:10001000A70B0000000000000000FFFF54000000DC
:1000200004180F00000000000000000000000000A5
:1000300000000000000000000000000000000000C0
:10004000000000000000000000000000B0010000FF
:0400500000000000AC
:10005400801A00205D900200D58B0000D98B00002F
:10006400A70A02020002000004180FAC5065B00198
:10007400000000000000000000000000000000007C
:10008400000000000000000000000000000000006C
:100094000000000000000000FFFFFFFFFFFFFFFF64
:1000A400FFFFFFFFFFFFFFFFFFFFFFFFFFFFFFFF5C
:1000B40000E00F000000000000001000FFFFFFFF41
:1000C400FFFFFFFF0100000000000000000000002F
:1000D4009843002098370020983700209837002054
:1000E400801A002044560300D89D020020110020ED
:0C00F400E41000200000100098430020E1
:10020000801A00205D900200D58B0000D98B000081
:10021000E18B0000DD8B0000E58B00005B900200AD
:100220005B9002005B9002005B9002005B9002001A
:10023000E98B00005B9002005B9002005B90020083
:1002400071A500001D840100D58E00005C8C0000AB
:10025000E17E0100898401002984010041840100BC
:1002600021840100A59C0000799D000095BB000041
:1002700005EF00005C8C00005C8C0000390400007D
:100280005C8C00005C8C00009D9D00005C8C00007C
:100290005C8C00005C8C00005C8C00005C8C0000BE
:1002A0005C8C00005C8C00005C8C00005C8C0000AE
:1002B0008D84010025840100F5A20000CD84010099
:1002C0005C8C0000C96D01005C8C00005C8C00003F
:1002D0005C8C00005C8C00005C8C00005C8C00007E
:1002E0005C8C00005C8C00005C8C00005C8C00006E
:1002F0005C8C00005C8C00005C8C00005C8C00005E
:0C0300005C8C00005C8C00005B90020034
:10030C00F8B500BFF8BC08BC9E467047F8B500BFF6
:10031C00F8BC08BC9E46704710B5054C237833B921
:10032C00044B13B10448AFF300800123237010BDBC
:10033C0048200020000000007450030008B5034B57
:10034C001BB103490348AFF3008008BD0000000057
:10035C004C20002074500300154B002B08BF134B8E
:10036C009D46A3F5803A00218B460F461348144A4C
:10037C00121A29F018FD0F4B002B00D098470E4B8A
:10038C00002B00D098470020002104000D000D48E0
:10039C00002802D00C48AFF3008029F0D5FC2000D7
:1003AC0029000FF049F829F0BBFC00BF0000080041
:1003BC00801A0020000000000000000048200020EF
:1003CC0098370020000000000000000070B5134CAE
:1003DC008A00A31822449B781D09062D98BF104E45
:1003EC0003F00F0394BF755DFF25062B05719ABFB3
:1003FC000C4DEB5CFF234371FF3B18BF0123837152
:10040C00D37014F82130084C437053788370014634
:10041C0020460BF02FFC0123A36070BD642000204C
:10042C0023A002001CA00200002000407FB522493E
:10043C0022480022FF23CDE901228DF809300378F0
:10044C004C6C8D6B03922C40E407DBB228D5022B4D
:10045C0026D88C6C1A4901EB8301A5B2CE781949C8
:10046C0006B326041ED521F813201749012202FADF
:10047C0003F30A781343154A0B701378CBB100239E
:10048C001478DC40E407D9B20FD501701078012440
:10049C0004FA03F34340DBB201A81370FFF796FF95
:1004AC0004B070BD21F81350DFE70133032BE7D103
:1004BC00F6E703230370F3E70020004070200020D0
:1004CC006420002074200020722000207120002065
:1004DC0007B5012308226946002002F0B1FD4FF652
:1004EC00FD71684600F0CAF8FF28024606D106499D
:1004FC00012004F0E7F803B05DF804FB0349012088
:10050C0004F0E0F8F7E700BF2AA0020046A00200C2
:10051C0007B5012308226946002002F091FD6846C8
:10052C0000F01EF930B90449012004F0CBF803B0F7
:10053C005DF804FB0149F7E7C0A00200CEA0020061
:10054C0007B5012308226946002002F079FD6846B0
:10055C0000F076F8FF28024606D10649012004F087
:10056C00B1F803B05DF804FB0349012004F0AAF8CC
:10057C00F7E700BF63A0020073A002002DE9F74368
:10058C001C49DFF87880DFF87890022004F09AF8A4
:10059C00002634464FF6FF7701F024F8F5B2A84256
:1005AC000AD801F01FF8224603461349022004F032
:1005BC0089F803B0BDE8F083284624F0A1FDB842C9
:1005CC00034615D02A464146022004F097F82846E7
:1005DC006946013424F07CFD0220E4B204F05EF89C
:1005EC0010B1684603F0E0FF4946022004F06AF8B7
:1005FC000136D1E790A00200A9A002009EA0020043
:10060C005903030037B5002002F0E0FC0446022039
:10061C0002F0DCFCE4B205466946012002F033FD31
:10062C00AAB26946204600F069F8224603460349FF
:10063C00022004F047F803B030BD00BFE3A0020075
:10064C00F7B5064698B100254FF6FF77ECB2204679
:10065C0024F056FDB84209D06946204624F038FDF6
:10066C0008226946304603F04CFB08B11DB1FF244B
:10067C00204603B0F0BD0125E8E700002DE9F74363
:10068C0080460E460027FF244FF6FF79FDB2284620
:10069C0024F036FD484515D06946284624F018FD4F
:1006AC0008226946404603F02CFB70B94FF6FD73E7
:1006BC009E422C4615D1104A135D0133135516E09A
:1006CC000127E3E7FF2C08BF2C46002FF8D0FF2CA6
:1006DC000DD04146204624F055FE4FF6FD739E4248
:1006EC0003D03146204624F0C1FC012CE3D920462E
:1006FC0003B0BDE8F08300BF7A2000200128F8B5D4
:10070C000546174612D80B4E325C8AB924F03AFED5
:10071C00044638B94FF6FD739F4203D0394628463C
:10072C0024F0A4FC012373552046F8BD6A24FBE792
:10073C007624F9E77A200020012810B50CD8074B55
:10074C001A5C0AB1013A1A541C5C1CB94FF6FF71C1
:10075C0024F08CFC002000E06A2010BD7A200020E0
:10076C0008B5FFF76DFFBDE80840FFF7E5BF0000D7
:10077C0008B5012003F064FB044B00221A70012021
:10078C000DF0BAFABDE8084003F049BB802D0020FB
:10079C0008B501201CF06AFA02481CF0DDF9024B86
:1007AC00187008BDF8A00200882D002008B503F0D1
:1007BC0081F9012805D0034B1878BDE808401CF0DE
:1007CC00AFB908BD882D002010B50C1E03D11CF04C
:1007DC0035F9002010BD02DB1CF03CF9F9E70220D2
:1007EC00F8E7B1F5000F02D20902FFF7EDBF0220C6
:1007FC00704700002DE9F0419846154B154F1B88AA
:10080C0000264FF00C0CF4B29C4202D30220BDE83F
:10081C00F0810CFB04F57C197D5D854205D1658862
:10082C008D4202D12579954201D00136EBE701F0DA
:10083C009DF90028EAD04146A068FFF7C5FF0028C3
:10084C00E4D19DF8183063719DF81C30A371DEE77C
:10085C00941A0020881A002013B59DF81040CDE999
:10086C00003413460022FFF7C5FF02B010BD07B5D8
:10087C0000230093FFF7F0FF03B05DF804FB0000CA
:10088C000E4BF0B51F880E4E00254FF00C0CEBB242
:10089C00BB4201D30220F0BD0CFB03F3F418F35C54
:1008AC00834205D163888B4202D12379934201D0D4
:1008BC000135ECE7A36800201870ECE7941A0020CF
:1008CC00881A00200022FFF7DBBF00002DE9F04F53
:1008DC001E4693B0FF23022E8046894614461C9D6B
:1008EC009DF874A08DF81E3040F2BA802B785A0710
:1008FC002BD5042E40F2B48095F804B05D4A002349
:10090C0002EBC301DFB20979FF2907D001330A2BAF
:10091C00F6D1209B002B40F0A780FF27002308AACC
:10092C000DF11F0120798DF81F3002F095F878B188
:10093C00BDF82C3023809DF81F0003F069FA8DF868
:10094C001D00C8B113B0BDE8F08F95F802B0D5E723
:10095C00207901F01DF9FF28059000F083802079A3
:10096C0003F06EFA8DF81D000028EBD1059B424870
:10097C0000EB031043882380618823884FF6FF72B5
:10098C00B8F1000F08BF4A46CDE90012584652464E
:10099C00002105F055F918B1E38843F02003E380FA
:1009AC00209B0F950DF11D010DA8CDE90D34ADF86F
:1009BC004090ADF842608DF844808DF845A002F06F
:1009CC006EF810B19DF81D00BCE7284605F090F8B4
:1009DC00A01D05F07BF822464946404605F040FA3A
:1009EC0080B2B0422CD39DF87C300393BDF87830A4
:1009FC0002930DF11E03CDE900532246F3B2494692
:100A0C00404600F08AFD8DF81D00209A9DF81D309F
:100A1C00D2B15BBB9DF81E20FF2A08D0092F06D847
:100A2C00144B03EBC7010A71209A43F837209DF849
:100A3C001D3013B9112001F0E9FF03F0F0F9C1E703
:100A4C0074238DF81D30E0E7BA2BF0D1E388DB0678
:100A5C00EDD5002301208DF81D3003F031F8E6E7C9
:100A6C0001206FE7A3206DE7B4206BE7BA2BEDD024
:100A7C00E3E700BF7C2000204C2E00200023054A19
:100A8C0010B51946FF24D018047199500833502B17
:100A9C00F9D110BD7C20002010B586B00881089CCF
:100AAC0004940024CDE902440124CDE9003413461A
:100ABC000A4601460320FFF709FF06B010BD13B527
:100ACC0000240094FFF7E8FF02B010BD2DE9FF41B0
:100ADC000F469046054688B381B37AB30026694623
:100AEC00F0B20EF00DFF044630B99DF80030032B28
:100AFC0006D00136032EF2D1204604B0BDE8F081B9
:100B0C009DF801202B799A42F3D1BDF802206B8815
:100B1C009A42EED19DF806309DF8050000EB0320BB
:100B2C0080B29DF804306B71288143463A462946C1
:100B3C00FFF7C5FF0028DCD00446DDE70224DBE725
:100B4C0010B586B0089C04940024CDE9024401241D
:100B5C00CDE9003413460A4601460620FFF7B6FEDF
:100B6C0006B010BD13B500240094FFF7E9FF02B0E6
:100B7C0010BDF0B502288BB005460E4614461F4634
:100B8C000AD106A9F0B20EF0BBFE98B99DF8193047
:100B9C0023719DF81C306371119B04930022109BF0
:100BAC000192CDE90222009322463B46314628466B
:100BBC00FFF78CFE0BB0F0BD13B500240194049C20
:100BCC000094FFF7D6FF02B010BD000007B5094A2C
:100BDC000346108831B9084A084903B05DF804EBA4
:100BEC0003F08CBD0091064A064903F087FD03B063
:100BFC005DF804FB6A210020C21A03007FA30200E7
:100C0C00661B030086A302007FB505460E461DF049
:100C1C00C5FA2A46044603460C49022003F052FD4D
:100C2C008CB986B101238DF80E3003230093224634
:100C3C0003AB36214FF6FC708DF80C408DF80D503F
:100C4C0006F084FC0446204604B070BD68A3020084
:100C5C00FF2810B50C4604D10220044903F032FDE4
:100C6C00FE202146BDE81040FFF7CEBF3EA4020097
:100C7C00F8B50F8805460C461646A7B900F0B2FD2C
:100C8C0040B9628848F221039A4203D17178284610
:100C9C0001F0EEFE6388B3F5004F02D9082001F095
:100CAC000FFF012000E00020F8BD2DE9F04788B0CF
:100CBC000C46924699468046BDF84060119D22F044
:100CCC00FBF98DF808800746CDE90345ADF81460B3
:100CDC00ADF816008DF818A08DF8199000F0AAFA4E
:100CEC008DF81A0000F0A8FA8DF81B0011F039FDF0
:100CFC008DF81C0002A801F0D0FEA8B933462A4694
:100D0C002146384604F0B6FB70B933462A462146D4
:100D1C003846FFF7ADFF38B9CDE9007033462A46A7
:100D2C004146204604F0B2FF08B0BDE8F087000051
:100D3C002DE9F04F85B0804689461446BDF83860E1
:100D4C000F9D9DF840B01F46002B2CD0474A4849B8
:100D5C00022003F0D3FC2388002B78D040F2091238
:100D6C00934276D0434A4449B3F5827F18BF0A4672
:100D7C006188009101964149022003F0BFFC238851
:100D8C006BB1022E0BD92B783D493E4A13F0010F63
:100D9C0018BF0A46AB783C49022003F0AFFC3B4934
:100DAC00022003F08FFC3A4A0023114602EBC300E9
:100DBC00007958454FD152F833A0002301EBC30200
:100DCC00107958454DD1FF201071002241F8332085
:100DDC0047B9238833B9B4F90230002B02DB082061
:100DEC0001F014FE012001F06BFE9DB12878C307C1
:100DFC0010D510F0040004D032460121284602F030
:100E0C00E7FFCDE90170009533462246494640463E
:100E1C0001F06CF8BAF1000F06D0CDE9005733465B
:100E2C00224649464046D0473B4622464946404624
:100E3C00CDE9006506F0FAFC3346224649464046A9
:100E4C00CDE90E5705B0BDE8F04F01F00DBE114ACB
:100E5C008EE7114A8CE701330A2BA7D14FF0000A19
:100E6C00ABE701330A2BA9D1B2E700BFEDA2020018
:100E7C00F5A20200DBA2020042A30200FFA20200C4
:100E8C00DEA20200E6A202002EA302005903030018
:100E9C007C200020D4A20200D8A20200962813B510
:100EAC00044632D02BD891283AD094282DD09028B3
:100EBC0014D100F0B9F9204B0090204A20490220AF
:100ECC0003F000FCBC2C26D11E49022003F0FAFBD7
:100EDC0001F0EFFD01F0EEFD01F0ECFD204606F017
:100EEC0023FD20460DF04CFB204601F0F0FD00B335
:100EFC001549022002B0BDE8104003F0E3BBAF2857
:100F0C0007D8AB280AD29828E8D1104B0B4A1049C5
:100F1C0009E0BC28CCE724F0B1FBDDE79128F4D143
:100F2C00054B064A0B49022003F0CCFB04F017FDDD
:100F3C00D4E702B010BD00BF93A302009CA3020033
:100F4C00A3A30200B0A30200E8A30200D7A30200EF
:100F5C00DFA30200CEA3020013B50F4C002002F059
:100F6C0057FF23686BB101A800F034FB48B9236824
:100F7C001A789DF804309A4203D0012A07D1022B2B
:100F8C0005D1032301A8ADF804301EF089F802F056
:100F9C0046FF02B010BD00BF6421002010B504460E
:100FAC0002F03BFF204601F08FFDBDE8104002F03F
:100FBC0036BF00000B4B1B6813B504467BB1187889
:100FCC0001280CD122890092E37A074A074903F0E1
:100FDC0079FB204602B0BDE810401DF0CFBE70205A
:100FEC0002B010BD6421002018A402001DA4020050
:100FFC000D4B1B6837B505469BB11C780289C37A2B
:10100C000A490092012C0A4A4FF0010008BF022441
:10101C0003F058FB2946204603B0BDE830401DF0D4
:10102C00DBBF702003B030BD642100201DA4020082
:10103C0039A4020010B5044600F0EEF8631E04F16A
:10104C000F02002113F8010FFF2808BF19709342FB
:10105C00F8D10023237410BD7FB504AB03E9030062
:10106C0000239DF80D509DF80E6016491C46D8B211
:10107C0001EBC0025268EAB99DF80C1000919DF882
:10108C000B309DF80A201049022003F037FB25B1E4
:10109C002A460E49022003F031FB0D4ABDF80830F8
:1010AC000C49002C18BF2246022004B0BDE8704049
:1010BC0003F008BB11F830000133B04208BF1446EE
:1010CC00D5E700BF7CA4020045A3020056A3020092
:1010DC0041A302005AA3020001F038BC10B50BF07A
:1010EC004AFA012300224FF4E13120200DF080FC5C
:1010FC0007F062FB044608F053F8224603461249F7
:10110C00012003F0DFFA07F05DFB044608F056F807
:10111C00224603460D49012003F0D4FA07F04CFB9C
:10112C00012303FA00F040F2A17318420BD0084CD3
:10113C00207807F04DFB207807F006FC2078BDE8FE
:10114C00104007F007BD10BDCCA50200E2A50200BF
:10115C00CD1A002037B50022114601A801F081FC00
:10116C00002846D11BF088FA034640B12249234A95
:10117C00012003F0A7FAAA21214807F003F902F095
:10118C003DFEFFF77BFC00F053FB00F015FB02214A
:10119C00084603F029FEFFF7DFFE01F0F5FE194BC0
:1011AC00194C1A4D00221A80194A52231380194ADD
:1011BC004FF40040138017F04DFF07F0BFFE1BF0FB
:1011CC0005FB02F077FC012801D000F0FEFA0DF0CF
:1011DC0065FCFFF7EBFA2021002002F007F928B19B
:1011EC00224629464FF6FF7003F088FA02F019FEEA
:1011FC00E3E7019803B030BD18A50200EDA2020090
:10120C0029A50200CE1F0020BDA50200C8A5020022
:10121C00D01F0020D21F0020024910237F220988F2
:10122C0007F0D2BD842903001BF09EBB1BF0A8BBAA
:10123C001BF06CB922F040BA1FB5684621F04AFF8A
:10124C00C8B902A923F044FF082269460DEB02003D
:10125C0002F057FD10B9002004B010BD02A9012006
:10126C0023F036FF082269460DEB020002F049FD1F
:10127C0090B90120F0E721F01FFF4FF6FF73984261
:10128C00044609D0002023F03BFF8442E3D0012028
:10129C0023F036FF8442ECD0FF20DDE738B505465D
:1012AC0002F0CEFD044638B94FF4A051284606F0A2
:1012BC00BFF8044602F0B3FD204638BD7FB50546A5
:1012CC0002F0ABFD1BF050FB40B16B88B3F5006F27
:1012DC0004D1681D01F0CAFB044616E0284601F053
:1012EC00EDFBD8B90446E6B2694630460EF008FB71
:1012FC0080B99DF800306BB9294630460EF066FB7C
:10130C000028E9D075280BD08C2402F088FD2046EB
:10131C0004B070BD0134032CE5D1F5E78D24F4E75E
:10132C008B24F2E710B5044602F077FD204601F05D
:10133C00C3FB58B920460EF017FB48B175280CBFFB
:10134C008B24882402F06BFD204610BD8D24F9E718
:10135C000446F7E737B502A9FF2301F8013D04461F
:10136C0001F076FB18B19DF8070003B030BD094BB6
:10137C0003EB04131D7B11F0F6F9854201D0FF201D
:10138C00F3E7204600F070FA0028F8D0204600F071
:10139C0097FCEAE74C2E00202DE9F04107460D465C
:1013AC0001F058FB0646F0B9384600F0F1FBFF2877
:1013BC0019D00E4C04EB001494F80C8011F0D3F9F6
:1013CC00804510D163882B80A3886B80A3792B7107
:1013DC000121384600F07AFC31466871384600F03D
:1013EC0075FC0126A8713046BDE8F0814C2E00201A
:1013FC00F8B504460E46154600F0CAFBFF2802D18C
:10140C004FF6FF70F8BD0B4B03EB0010077B11F090
:10141C00AAF98742F4D146B901222946204600F0A8
:10142C007BFC0028ECD00088ECE7012EE8D10022F0
:10143C00F3E700BF4C2E002010B5044602F0EDFC83
:10144C002046FFF72BFDBDE8104002F0E8BC000081
:10145C0037B50C4B1B681C5C94420D460AD90092A4
:10146C002346094A0949022003F02CF9002420469E
:10147C0003B030BD002201460092234628461BF0E3
:10148C0027FEF4E73C1B0020EDA2020000A50200A1
:10149C00F0B599B0144603AD0F46064602F0BDFCFC
:1014AC00204652222946FFF7D3FF84B28CB10DF1AE
:1014BC000A0021F0F1FD0DF10B0021F0F5FD9DF975
:1014CC000B309DF80A20CDE9004539463046FFF730
:1014DC00ECFB02F0A4FC19B0F0BD2DE9F0419AB080
:1014EC001D4605AC0F469046064602F096FC52226D
:1014FC0021462846FFF7ACFF50B180B20090CDE9F1
:10150C0001459DF88030424639463046FFF710FCC5
:10151C0002F085FC1AB0BDE8F0812DE9F7430746CF
:10152C000E460A98BDF830809DF834901946154641
:10153C001BF0F6FDFF2804463AD00B9B1870062FC3
:10154C0034D8DFE807F004040412192922000346FA
:10155C002A463146384622F015F8054620461BF03F
:10156C0083FC284603B0BDE8F0830C2203461146E9
:10157C00284621F0D9FFF0E7EA7A0346CDE9008945
:10158C001146284621F092FFE7E703460C22294634
:10159C00304621F031FFE0E70190EB7A00934A46A8
:1015AC002B463146404621F04BFFD6E70225D5E7C6
:1015BC001825D6E70822014902F040BB71360020FD
:1015CC0010B5044608461AF0B5FF2046BDE8104099
:1015DC001CF062BF1CF060BF0520704700207047F4
:1015EC00032070470420704706F0B0BB06F020BB08
:1015FC0006F018BB014B1878704700BF541B002035
:10160C004B207047024B18685968FFF725BD00BF87
:10161C00D84C030013B5044602F0FFFB0DF1060095
:10162C0021F03AFD0DF1070021F03EFD9DF9072058
:10163C009DF8061020460CF0DDF830B99DF9072016
:10164C009DF8061020460DF093F902F0E8FB02B06D
:10165C0010BD38B504460D4602F0DFFB2946204686
:10166C000CF0FCF918B9294620460DF091F9BDE8AB
:10167C00384002F0D4BB38B504460D4602F0CDFB21
:10168C00294620460CF020F918B9294620460DF0C1
:10169C005DF9BDE8384002F0C2BB704700F0A6B857
:1016AC00014B187000207047CC2000202DE9F3412D
:1016BC00224B01931646044640B13AB1002301AACD
:1016CC009D5C8D4233D00133042BF9D1022002B042
:1016DC00BDE8F081E35C93FAA3F30146180E02F027
:1016EC00DBF9434603F10108DBB2BB42F2DBC2B2C9
:1016FC0092FAA2F2C0F30F2393FAA3F3100E1B0E6F
:10170C0003EB00236219DB439BB212F8020CD9B233
:10171C00884211D112F8012CB2EB132F0CD13246A6
:10172C002146284602B0BDE8F04110F0ADB80023C8
:10173C004FF6FF708F1ED5E7BD20C8E7080A0E12C2
:10174C002DE9F0411D4686B01A4B1646074603A8F4
:10175C0088461C780EF006FB16F0FD0F28D030B929
:10176C00BDF80C30990702D5032E08BF032433466D
:10177C002A4641463846009401F0ADF9FFF754FD76
:10178C00854203D02946384606F00EFA022C0BD0BF
:10179C00FFF74AFDA84207D0B21E534253412946D7
:1017AC000022384606F04AFA204606B0BDE8F08121
:1017BC000324DCE7CC20002008B501F0C9F804F0C4
:1017CC00A3F8BDE808400CF0D9BE08B501F04BF900
:1017DC0004F0C4F80CF038FABDE808400CF02EBB4D
:1017EC0001F059B901F05DB90020704738B50446D5
:1017FC000D4601F075F929462046BDE838400CF03D
:10180C00D9BE01F050B901F05CB9000010B5074A1F
:10181C000123312B194601D1002006E00233D418E4
:10182C0014F8034C8442F4D1505C10BD02A60200A3
:10183C00074B01221A70074B1A709A71064A9A606C
:10184C004FF482714FF48072598099809A8170475D
:10185C00CD2000204C2E0020BCA70200014B187894
:10186C00704700BFCD200020034B03EB0010407BE2
:10187C0000F00100704700BF4C2E002041380328B7
:10188C008CBF002001207047413801288CBF0020FC
:10189C0001207047433801288CBF0020012070477D
:1018AC0000207047002070470388B3F57C4F01D3AC
:1018BC00FFF7F8BF0846FFF7F3BF10B54A88048856
:1018CC00A2420DD1037B0C79234009D0B2F57C4F99
:1018DC0008D3FFF7E7FF0B891B1A5842584110BD7C
:1018EC000020FCE70120FAE738B50D88D488A54222
:1018FC000AD10388B3F57C4F08D2FFF7D5FF1389C3
:10190C001B1A5842584138BD0020FCE70120FAE769
:10191C002DE9F04F8BB04FF0000A01939DF8503039
:10192C000593714BDFF8D0911B78049180461546D6
:10193C0008935746089A5FFA8AF39A4201D8862090
:10194C0063E099F800300293D9F808300393029AB7
:10195C0098F80030934240F0BF8099F80D30D807CA
:10196C0009D5039B1B7907934FF0000B079A5FFA7D
:10197C008BF39A4204D80AF1010A09F11009D9E74C
:10198C00039B1E68142303FB0B6641463046FFF78E
:10199C0094FF002800F09C8033890693002306995D
:1019AC009AB2914202D80BF1010BDFE774680993EC
:1019BC000C2202FB0344214642463046FFF794FFBB
:1019CC002279099B00287BD0049B03B11C609106F3
:1019DC001ED4464809E01A79920642BFD8783F18BF
:1019EC00BFB20C339C42F6D84148059B074493B1D7
:1019FC0021463046FFF758FF2388B8F802100246FC
:101A0C00029801F008F860BB7E200BB0BDE8F08FA7
:101A1C000027384BE6E7002D35D021463046FFF73E
:101A2C0043FF2388B8F802100246029800F0F1FF39
:101A3C000028E9D0DFF8C49028462379DB0615D5B9
:101A4C0021463046FFF730FF98F80060B8F80210D6
:101A5C001495034622463046CC460BB0BDE8F04FF9
:101A6C0060473846DFF898902F46E6E7019AA3784E
:101A7C005AB9E278A3F14101012908D8013AD2B24E
:101A8C00394604F019FA0020BFE7019AF2E7433B0C
:101A9C00012B05D8023A92B2394604F027FAF2E744
:101AAC00059B2BB9019B1BB1E37801998B4218D88C
:101ABC00394617B902F01EF9E5E702F0BFF8E2E784
:101ACC0012F0300F02BFE0783F18BFB2013366E767
:101ADC0070890744BFB266E7039BD8880744BFB23E
:101AEC0049E7892091E700BFCD2000205C2E002023
:101AFC008C2D00203CA602004C2E00204D2A00000C
:101B0C00512A00002DE9F0410779064600254FF0D7
:101B1C001408E8B2874201D800241AE008FB05F04B
:101B2C00D6F800C00CEB00043CF8000088421AD137
:101B3C0032B1802A10D194F90CC0BCF1000F12DA2A
:101B4C00B0F57C4F05D32046FFF7ACFE984200D091
:101B5C004BB92046BDE8F081402A04D194F80CC062
:101B6C001CF0400FECD10135D3E70000064B1B787D
:101B7C003BB1064B1A78824203D1587B00F001002E
:101B8C0070470020704700BFCD2000204C2E002055
:101B9C0070B50A4B0A491D780023DAB2AA4202D367
:101BAC00FF22104670BD1C016618645C844202D191
:101BBC00747BE407F5D40133EFE700BFCD200020A0
:101BCC004C2E00202DE9F0410D4616461F46FFF71E
:101BDC00DFFFFF280AD0074C04EB00103B463246CF
:101BEC0029468068BDE8F041FFF78CBF0020BDE8B6
:101BFC00F08100BF4C2E002008B513460022FFF7E1
:101C0C00E1FF003018BF012008BD08B51346402283
:101C1C00FFF7D8FF003018BF012008BD08B51346E8
:101C2C008022FFF7CFFF003018BF012008BD000055
:101C3C00054B1B7833B1054B1B78834214BFFF2037
:101C4C0000207047FF207047CD2000204C2E002034
:101C5C0070B51D46FFF7ECFF044C04EB00102B464F
:101C6C008068BDE87040FFF74DBF00BF4C2E0020D0
:101C7C00F8B507460C4615461E46FFF7A3FF78B18C
:101C8C00094B187858B1094B1878B8420AD033462A
:101C9C002A462146FFF7DCFF003018BF0120F8BDB3
:101CAC00FF20FCE70020FAE7CD2000204C2E00207E
:101CBC0013464022FFF7DCBF0022FFF7F9BF0000FC
:101CCC00014B0001185C70474C2E002070B50D467E
:101CDC00FFF75EFFFF2818D00E4B03EB0010826855
:101CEC009AB10023117918461426DCB2A14200D80F
:101CFC0070BD146806FB0344247B45B114F0400FFF
:101D0C001CBF0130C0B20133EFE70020F0E714F044
:101D1C00800FF5E74C2E00202DE9F0410F46904640
:101D2C00FFF736FFFF280BD0104B03EB00100023FE
:101D3C00856829791C464FF0140CDAB2914202D80E
:101D4C000020BDE8F08128680CFB0300067BB8F18D
:101D5C00000F08D016F0400F03D0BC42F1D0013474
:101D6C00E4B20133E9E716F0800FF5E74C2E0020C2
:101D7C002DE9F04F89B0074610F0F3FC3D4B1B7872
:101D8C000293824600244FF00C0B029B9C422ED2F5
:101D9C00FF2F05D03846FFF7FBFEFF28044626D060
:101DAC00FF2F354E4FEA041360D1F218127B5245C7
:101DBC005CD00134E4B2E8E71B68142202FB053561
:101DCC002B89B3F5967F01D907F0B8F84FF00009CD
:101DDC002A891FFA89F39A420CD808F10108B368D2
:101DEC001A795FFA88F5AA42E6D8FF2FE1D009B03C
:101DFC00BDE8F08F1FFA89F168680BFB01F14218FE
:101E0C00137913F0100F29D196F800C08DF814C077
:101E1C00B5F800C0ADF816C013F0400F0CBF4FF072
:101E2C00400C4FF0800C8DF818C0415AADF81A10C8
:101E3C00284611460393FFF737FD039BADF81C00B2
:101E4C005B07D1780DD50229926800D9126801235D
:101E5C0000930023194605A8FFF75AFD09F1010963
:101E6C00B6E7022994BF08329268F0E74FF00008F9
:101E7C001E44B4E7CD2000204C2E00200021FFF79B
:101E8C0077BF704710B5047B14EA010310D0002211
:101E9C0001238B4203D3036953F8220010BD1C426B
:101EAC0018BF01324FEA430318BFD2B2DBB2F0E7DE
:101EBC001846F3E7F8B516461F469DF81820BDF8EE
:101ECC001C300546FFF77EFE78B10421FFF7DAFFE0
:101EDC00044650B1284601F0B3FF3A463146284635
:101EEC00A047BDE8F84001F09ABFF8BD2DE9F74FC7
:101EFC000C9D9DF834B01F4681468A46BDF838309B
:101F0C00144612B30DB307B392F804802A78618893
:101F1C0012F0080F14BF402280224046FFF752FEF9
:101F2C0098B10821FFF7AEFF064670B1404601F0AC
:101F3C0087FFCDE9005B3B46224651464846B047F9
:101F4C0003B0BDE8F04F01F06ABF03B0BDE8F08FFD
:101F5C00F8B5BDF8185017461A462B460446FFF73D
:101F6C0031FEE0B175B90221FFF78CFF0546B0B127
:101F7C00204601F065FF39462046A847BDE8F840E9
:101F8C0001F04DBF1021FFF77DFF064638B120460A
:101F9C0001F056FF2A4639462046B047EEE7F8BD19
:101FAC0073B5BDF8184016461A4623460546FFF78A
:101FBC0009FEB8B1C4B92021FFF764FF044670B123
:101FCC00284601F03DFF099B00939DF81C209DF8CD
:101FDC00203031462846A047044601F020FF204619
:101FEC0002B070BD8624FAE70024F8E72DE9F04131
:101FFC0086680446007801F023FF00251427327907
:10200C00EBB29A4203D8BDE8F04101F008BF7B4324
:10201C0032682078D15A02EB030800F000FD012150
:10202C004046FFF72FFF034608B12078984701354B
:10203C00E5E7000070B5084D084E00242B78E0B29F
:10204C00834200D870BD06EB0010437BDB0701D543
:10205C00FFF7CCFF0134F1E7CD2000204C2E0020FF
:10206C002DE9F041194B1B7805460C465BB318481B
:10207C000378AB42064626D1437B03F0010239B10B
:10208C0043F0010343734AB101242046BDE8F081BB
:10209C007173002AF8D04FF014080DE0FFF7A6FF7B
:1020AC00F3E71B6808FB04F41A19195B127B28462A
:1020BC00D209FEF7E5FB3C46B3681A79671CE4B21B
:1020CC00A242EED8E0E70024DFE700BFCD200020DD
:1020DC004C2E0020002070472DE9F74F4C7D0193CA
:1020EC00BDF830A09DF838B070B394B3012C18BF74
:1020FC0004249DF83C70DFF8888000263546BFB27A
:10210C0036F80800904218D108EB060090F803E06E
:10211C001EEA040F11D090F80290D9450DD31EF091
:10212C00100F91F80FC016D0BCF1000F05D0FFF7BF
:10213C00D1FFB1F810C0844510D00436382EDFD151
:10214C00012003B0BDE8F08F002C14BF0424082438
:10215C00CFE70224CDE7BCF1000FEED1AF420CD09B
:10216C00AA450AD9019B0D9803F8059000880D9B90
:10217C00013001351880ADB2DFE70020E1E700BF88
:10218C0084A702002DE9F04F89B01D46BDF84840E8
:10219C009DF850300193934623462A4607460E4637
:1021AC00FFF710FD8DF81470ADF816608DF818500F
:1021BC00ADF81AB0ADF81C40814618B9012009B031
:1021CC00BDE8F08F05A9FFF778FB0028F6D09DF845
:1021DC004C3000259BB22E462F462C46029336E0FF
:1021EC000C231FFA85F8B9F8002003FB08F8D9F87E
:1021FC000430B2F57C4F03EB080A1AD333F808000D
:10220C0058452ED3029BA3422DD901F0BFFD9AF85D
:10221C00020001F0A7FD019B43B19AF8043013F0C2
:10222C00010F0CBF0520072001F09CFD0134A4B266
:10223C0019E033F80820ADF81A20514605AA484693
:10224C000393FFF751FB039B0028D7D10135B9F855
:10225C000820ABB29A42C3D83C44A31B5842584105
:10226C00ADE70137BFB20136B6B2EFE72DE9F04F5B
:10227C008FB098469DF8703006930023BDF860909F
:10228C008DF82C00ADF82E10ADF8322000930546D9
:10229C000E46174608A91A460BA80893199C9DF8D8
:1022AC0068B09DF86CA08DF83080ADF83490FFF7D5
:1022BC002FFB089B6BB9CDE900672B465A4A5B494B
:1022CC00042002F0FFF94FF0860A50460FB0BDE82B
:1022DC00F08FBAF1000F15D19A785A4507D0524AAF
:1022EC005349042002F0EEF94FF08D0AEDE71A790C
:1022FC00D10707D44C4A4F49042002F0E3F94FF0C0
:10230C00880AE2E71A79520732D59A6851689268BE
:10231C0009910A92987803F065FE089B059093F852
:10232C0003A0BAF1020F14D803465246214609A85D
:10233C0003F0FDFD059B0790524621460AA803F0C9
:10234C00F6FD079B012B01D0013011D14FF0870A0C
:10235C00BBE7059B09985246214603F0E8FD01288E
:10236C00F4D0059B0A985246214603F0E0FDEBE7BA
:10237C00069B002B51D1089B0394DB78CDF8009081
:10238C00CDE901B33A4643463146284600F07FFB7F
:10239C008246002899D1089B0394DB78CDF80090F5
:1023AC00CDE901B33A46434631462846FFF7F8FDDE
:1023BC008246002889D101230093069B22461946A8
:1023CC000BA8FFF7A5FA824600287FF47EAF089B86
:1023DC00324629462046FFF754FD43463A463146DD
:1023EC002846CDE901B4CDF8009000F06CFB089BB9
:1023FC000394DB78CDF80090CDE901B33A4643461F
:10240C003146284600F042FBCDF8009043463A4650
:10241C0031462846FFF79CFD57E70749042002F098
:10242C0051F94FF0000A50E7EEA70200FAA702009C
:10243C0022A8020036A802004AA802002DE9F047A3
:10244C0086B007460F9D9DF84060BDF8384000945B
:10245C00CDE90156884691469A4600F0D8FA98B1D3
:10246C0002280ED84FF00003049308BF0123CDE9D6
:10247C000263CDE9004553464A4641463846FFF7CC
:10248C00F5FE06B0BDE8F0870120FAE730B587B05D
:10249C0000240125CDE903549DF82C5002950A9D8A
:1024AC00CDE90045FFF7E2FE07B030BD30B587B08F
:1024BC0000240125CDE903549DF828500094CDE962
:1024CC0001354023FFF7D2FE07B030BD10B586B002
:1024DC004FF0010C0024CDE9034C9DF828400294E8
:1024EC00099C0194BDF820400094FFF7BFFE06B094
:1024FC0010BD000030B587B000248DF81030BDF849
:10250C0028308DF80C00ADF80E10ADF81220ADF897
:10251C0014300094BDF830300B9A029402A903A831
:10252C000D9DFFF7F5F9044630B915B1029B9B7868
:10253C002B70204607B030BD8928FAD102490420FF
:10254C0002F0C0F8F5E700BFC4A702001FB5089C55
:10255C0003949DF81C400294069C01940024009462
:10256C00FFF7C8FF04B010BD2DE9F04F4FF0000B82
:10257C0099B0FFF773F95FFA8BF6B04202D819B035
:10258C00BDE8F08F5A4C5B4936010420A25D02F085
:10259C0099F85949042002F095F84FF0000A059477
:1025AC00059B33445FFA8AF49B681A79A24202D8DD
:1025BC000BF1010BDDE71B68142202FB04344FF016
:1025CC00000822891FFA88F39A4202D80AF1010AFC
:1025DC00E6E71FFA88F30C275F4363680493DD1961
:1025EC0006F0ACFC2B794549228813F0400F049B74
:1025FC00DB5B00934FF00400414B08BF0B46414995
:10260C0002F07CF829462046FFF74EF98146002857
:10261C003BD13D49042002F071F82979DFF80CC157
:10262C003A48AA78EB7811F0010F08BF604611F018
:10263C00020F30D1DFF8F8C011F0100F344908BF89
:10264C006146CDE900013349042002F057F8059B9F
:10265C002188985D049BDA5B2B79002713F0400FDF
:10266C004FF04103CDE9023707AF14BF802340235D
:10267C00CDE90097FFF73EFF86280ED126490420AE
:10268C0002F020F808F101089BE7024623490420D8
:10269C0002F034F8C1E72249D3E7A878FFF7F4F841
:1026AC00D0B1384601F09AFB013082B20123394691
:1026BC00042001F05BFF4946208803F05FF94FF6D8
:1026CC00FF739842DED0174B174903EBC0004268EA
:1026DC00042001F0F7FFD5E7A878FFF7DBF820B16D
:1026EC00384601F080FB0230DFE7EA78DEE700BF16
:1026FC004C2E00208FA802009BA802006CA80200A0
:10270C0067A80200DBA80200EDA8020074A8020072
:10271C0087A80200F2A802000AA902004D130300C8
:10272C007FA80200A8130300FDA5020071A80200F7
:10273C0077A802002DE9F04796B00446BDF87C70EE
:10274C00BDF878A0042F0E461546994664D9CDE9FC
:10275C00013A00920B4602463149042001F0B2FFC7
:10276C000DF1130303930DF114084123029320463A
:10277C00CDE900A84B462A463146FFF7BBFE04467E
:10278C0000283CD19DF81300A0F14103012B29D85E
:10279C00404601F023FB0130C4B2E31CBB423BDAE0
:1027AC00284601F0F3FADFF88890002001F0DAFAFD
:1027BC009DF8130001F0D6FAB9F800301A19512A15
:1027CC000BDC1848A7B23A461844414601F036FAD9
:1027DC00B9F800301F44A9F8007000942B4632461B
:1027EC00114916E0A0F14303012B04D8404601F037
:1027FC00FAFA0230D0E7FFF709F80446CDE728468D
:10280C0001F0C4FA204601F0ADFA084900942B46B9
:10281C003246042001F056FF16B0BDE8F08700BF29
:10282C0016A90200CC2E00206DA902004AA90200B4
:10283C00BC2E002008B5074B00221A7019F01CFFA3
:10284C0001200BF0ADFD42F210710348BDE80840C9
:10285C001AF000B9802E0020782E002008B5084B05
:10286C0000221A700BF032FF06490246012001F0DB
:10287C0029FF42F210710448BDE808401AF0EAB88A
:10288C00782E0020B8A90200682E002008B5104B45
:10289C001049002201201A7001F014FF0E4B022285
:1028AC000621012000F03EFA0B21012000F07CFAF9
:1028BC004FF6FF7000F074FA08490246012001F04F
:1028CC0001FF40F6AC510648BDE808401AF0C2B80A
:1028DC00682E0020DBA302005903030097A9020015
:1028EC00702E002030B5144B144985B00025012002
:1028FC0001241D7001F0E6FE64232A46CDE9004355
:10290C00CDE902550E4B0821204600F00BFA0B21A5
:10291C00204600F049FA4FF6FF7000F041FA2046CD
:10292C002246084901F0CEFE074840F6AC5105B0EE
:10293C00BDE830401AF08EB8702E002005F502006C
:10294C00D2F50200A8A90200682E002070470000F2
:10295C0001481AF073B800BF802E0020C37B10B55D
:10296C0004460BB1832010BDC37C1BB1012B10D0CE
:10297C008120F8E7017D82898B1C9A420CD38068F8
:10298C0001F026FA0BF0D6F940B9E37B002BE9D124
:10299C00EEE70BF0E7F9F7E78020E4E70020E2E749
:1029AC0038B5C37B002B437D14BF8325C325012B76
:1029BC00044615D10368028A59885879FFF72EF915
:1029CC0070B123685B88062B03D0082B01D0032B36
:1029DC0002D1E37B13B18325284638BD8125FBE763
:1029EC00637D002BF8D12368228A59885879FFF728
:1029FC000CF90028F0D023685B88002BE9D0032B5E
:102A0C00EAD12046BDE83840FFF7A8BF7047012047
:102A1C0070470120704701207047B5207047704700
:102A2C00002070470020704700207047002070473E
:102A3C00002070470020704700207047002070472E
:102A4C000120704701207047B52070470020704767
:102A5C000020704700207047002070477047B52059
:102A6C0070470020704770470020704784207047E3
:102A7C007047704770477047704770477047012028
:102A8C007047704702F098B90320704770470020D8
:102A9C0070470020704700207047002070470020CE
:102AAC0070470020704700207047002070470020BE
:102ABC0070477047B5207047002070470020704762
:102ACC007047002070477047704770477047002070
:102ADC007047B520704770477047704700207047AB
:102AEC00704702220621012003F0C8BB42220621B6
:102AFC00012003F0C3BB41220621012003F0BEBB21
:102B0C0001220621104603F0B9BB40220621012008
:102B1C0003F0B4BB00220621012003F0AFBB03225B
:102B2C000821012003F0AABB02220821012003F096
:102B3C00A5BB07220821012003F0A0BB0622082117
:102B4C00012003F09BBB04220821012003F096BB5B
:102B5C0005220821012003F091BB0022082101204D
:102B6C0003F08CBB01220821104603F087BB4022E6
:102B7C000321012003F082BB01220321104603F044
:102B8C007DBB00220321012003F078BB022203212C
:102B9C00012003F073BB01220021092003F06EBB5E
:102BAC0002292DE9F84F0546894604D84FF0000B51
:102BBC005846BDE8F88F1BB10429F7D942F004023E
:102BCC000C9C2A70002B50D06B701B0AAB70032727
:102BDC0002F060FF07F1020BE85501379DF8283031
:102BEC00EB55464E4FF000085FFA88F30B9AD05C19
:102BFC000028DDD0732861D8A0F14C03DBB2162B72
:102C0C0004F10407D4F800A039D826FA03F3DB4307
:102C1C0013F001033BD162684C2804F1080794B20D
:102C2C0025D14FF6FF7322469C4214BF022300238A
:102C3C000BEB040018448145B8DBDE46184600282F
:102C4C0051D19B441FFA8BFB5CB1BAF1000FADD094
:102C5C0005EB0B002246514600F0F0FFA3441FFA8F
:102C6C008BFB08F101083C46BEE70127B0E753286F
:102C7C001BD1D2B2B2F1FF0318BF0123D8E76C28E5
:102C8C0005D1504601F0AFF8023084B20CE0732845
:102C9C0004D1504601F0A2F80130F6E7A0F130045F
:102CAC00E3B2092B03D8A4B200231A46C0E7A0F163
:102CBC004103062B3FF67AAF3738E6E7752808D084
:102CCC0076280CD078280CD077287FF46FAF0423AB
:102CDC0000E00123271D22680024A246A8E7022356
:102CEC00F8E70323F6E70EF1010C013805F80E2086
:102CFC00C0B2120A1FFA8CFEA1E700BF810040008F
:102D0C0010B5044C20600448018004490A60044A50
:102D1C00136010BDD8200020DC200020D42000201F
:102D2C00D020002008B430B586B009AB0C4653F85F
:102D3C00045B0D49059309880092CDE901530246C5
:102D4C000A4800230068FFF72BFF094B1B6818800B
:102D5C00084B1B684FF482525C80DA8006B0BDE8E9
:102D6C00304001B0704700BFDC200020D82000208C
:102D7C00D4200020D020002007B5064B1B681A88F1
:102D8C000091054B05491B680968FDF7D9FE03B096
:102D9C005DF804FBD4200020D8200020D020002097
:102DAC000021FFF7E9BF0000024B1B681871597135
:102DBC00704700BFD02000202DE9F84F0C468F68DB
:102DCC000A683C490546202006F0F3FC6368ABB961
:102DDC003949202006F0EDFC20200BF047FEE2687C
:102DEC001AB13649202006F0E4FC3549202006F0C3
:102DFC00F5FC2020BDE8F84F0BF038BE002DEBD0D1
:102E0C00E3681BB12F49202006F0D3FCDFF8DC80EF
:102E1C00DFF8DC90DFF8DCA03D46EE1B15F801BBBB
:102E2C00F6B2BBF1000F04D12549202006F0D6FCE8
:102E3C00D2E723691BB14146202006F0BAFCBBF156
:102E4C00750F27D0BBF1760F26D0BBF1770F25D0AD
:102E5C00BBF1730F24D0BBF1720F23D0BBF1710FF8
:102E6C0022D0BBF1620F21D0BBF16E0F20D01649DE
:102E7C00164BBBF12A0F18BF1946202006F099FCFF
:102E8C002369002BC9D053F826201149202006F0C5
:102E9C0090FCC2E74946F0E75146EEE70D49ECE7F6
:102EAC000D49EAE70D49E8E70D49E6E70D49E4E786
:102EBC000D49E2E74B2E03000CC50200BD030300D5
:102ECC0059030300AD030300AA030300A703030087
:102EDC00B7030300710303007D03030087030300A2
:102EEC00920303009D0303000BC50200170F0300A0
:102EFC00660303005A030300F0B5214A92F87B30B5
:102F0C00184452FA80F01F4B90F865C090F8665048
:102F1C001F78A5EB0C050026EDB23046F4B2A542A5
:102F2C0025D90CEB060313445B7811B10CB92D2B8E
:102F3C0017D0782B1FD0582B05D108B137240AE0B5
:102F4C00013C012C14D9602B17D8402BF6D83A2B06
:102F5C0034BF302400241B1BDBB29F4203D900FB7F
:102F6C0007300136DAE7052382F879300020F0BD0E
:102F7C0010270020F5E70028E2D05724EBE700BF2C
:102F8C00DE200020CE1A0020094A0023FF211370F6
:102F9C0082F8783082F8653082F8773082F87930B0
:102FAC0082F87A1082F87B30024A1360704700BFB7
:102FBC00DE200020882E0020034B93F8770093F836
:102FCC007B30C01AC0B27047DE2000200021FFF712
:102FDC0093BF000010B50A4B93F87B20024453FAC0
:102FEC0082F292F8652013445C78A4F12D035942C7
:102FFC005941FFF781FF2D2C08BF404210BD00BF87
:10300C00DE20002030B50C4A92F87B300344C043DC
:10301C00DBB2C00F39B1D51895F8664095F86550FC
:10302C00641B241A0C7042FA83F393F8653018442D
:10303C00024B184430BD00BFDE200020DF200020F2
:10304C00F7B50E460DF1070115461C46FFF7DAFFE2
:10305C009DF80730AB42074688BF8DF807501CB16E
:10306C009DF807402C1BE4B222463046002100F0AC
:10307C0041FE30199DF80720394600F0DFFD9DF820
:10308C00070003B0F0BD38B508220C460123FFF74A
:10309C00D7FF04F10803621E043413F8011D12F863
:1030AC00015F1D70A3421170F7D138BD38B50146D0
:1030BC0005460120FFF780FED5E901436CB91C469B
:1030CC00084D236863B12946202006F072FB214687
:1030DC000020FFF771FE1434F3E71B786E2BEFD052
:1030EC0038BD00BF170F030008B50449202006F0B7
:1030FC0060FB2020BDE808400BF0B8BC1A030300AD
:10310C0038B5FFF7F1FF064D00246119143463192B
:10311C0053F8143C03B938BD0020FFF74DFEF4E71B
:10312C00CCA902002DE9F84F1F4B204D53F820205D
:10313C001F49202006F03DFB2B681BB9BDE8F84F5A
:10314C00FFF7DEBF1B4FDFF874A0FFF7CDFF0026A3
:10315C00B94697F87B30F4B2013B9C4204DB2868FB
:10316C00BDE8F84FFFF7A2BF47FA86F34C4493F83B
:10317C0065800023C84494F8662094F86510521AB0
:10318C0003F1010BD2B2DBB2934205D30A492020E2
:10319C0006F00FFB0136DCE7434451465A782020F9
:1031AC0006F007FB5B46E6E7D01A0020882E0020CD
:1031BC0015030300DE200020180F03007414030015
:1031CC002DE9F74F824C94F87730002B00F0A38058
:1031DC00804B1B7813F0010F04F101071FD0002561
:1031EC007D4E14E06319202093F8662093F8653027
:1031FC00D21A44FA85F3D2B293F8651039440BF025
:10320C0030FC3146202006F0D4FA0135EDB294F8AA
:10321C007730AB42E6D87149202006F0CAFA94F810
:10322C0077300193DFF8C0E16D4B00269EF80080EB
:10323C001EF801CF1EF8012C4FF00009ACEB020C6C
:10324C00B8445FFA8CFC4D461868002853D00138FE
:10325C00C24619E02AB9002D4BD04FF001091433A6
:10326C00F2E71AF8011BA1F1410BBBF1190F98BF42
:10327C002031A2F1410B98BFC9B2BBF1190F9CBF11
:10328C002032D2B28A42EAD1AAEB0801614510F889
:10329C00012FDFD1002ADED11D46524B1D6094F860
:1032AC007B30013384F87B30D5E901230136F6B24B
:1032BC00002A36D01B786E2B32D03F2B24D04FF007
:1032CC0000094F464FF0070A4FF0040B5FFA89F0E4
:1032DC00811994F877C0AA68C9B28C45D35D28D8F7
:1032EC0093B117447B782A2B1CBF032384F87930C5
:1032FC000AE01D46B3E7B9F1000F01D1002DCCD186
:10330C00022384F87930002594F8790000285CD1E8
:10331C00686800F02FF903B0BDE8F04FFFF734BE3A
:10332C001346019AB24281D8032284F879201D46B3
:10333C00EAE7732B08D8712B0AD2002B43D0622BEF
:10334C0030D084F879A016E0A3F17502022AF8D8DF
:10335C00752B1ED0762B1FD0732B20D0722B47F6DB
:10336C00FF7818BF4FF0FF380121FFF7C5FD40452E
:10337C0001D984F879B0AB683B4409F101095B7859
:10338C002A2B94F879301CBF0137FFB2002B9DD04B
:10339C00BAE74FF0FF08E7E74FF6FF78E4E74FF0A6
:1033AC007F08E1E794F87B30184454FA80F090F8E9
:1033BC00653023445B78222BDDD07B2BDBD00523BF
:1033CC0084F87930D7E70323FAE7FFF7ABFEA2E7DF
:1033DC00DE2000205A210020180F030057030300A1
:1033EC00CCA90200882E0020432100202DE9F341B6
:1033FC005E4C5F4F06460D464FF0000866B90DF166
:10340C00070128460BF026FB78B1262800F0A9808E
:10341C00012384F879304BE0002D00F0A28016F8DF
:10342C00013B8DF80730013DEDB23A789DF807303D
:10343C003B700D2A01D10A2BE0D00D2B0CD0A3F13F
:10344C000A025142514122788846042AD6D8DFE834
:10345C0002F0051D263C31000121F4E721B1FFF7F4
:10346C00AFFE4FF00108C9E7202B63D0222B07D108
:10347C000223237094F87820642A5DD10623C8E7D0
:10348C007B2B01D10323F4E70123F2E709B9202BAD
:10349C00F0D194F87730112B3FD10323B9E7222BCD
:1034AC00F7D00029E6D0052384F879304FF00108D5
:1034BC0004232370B8F1000FA0D094F8790008B160
:1034CC00FFF730FEFFF760FD98E77D2B94F87A004C
:1034DC0003D1FF28DDD005239BE7602B13D8402BAD
:1034EC0013D8392B8CBF002230229A1AD2B20F2A51
:1034FC0010D8FF280BD002EB0012FF238DF8072009
:10350C0084F87A30B6E75722EFE73722EDE784F8F4
:10351C007A2073E7202BDED170E70133DBB284F81D
:10352C007730234494F8782083F8652000232370A7
:10353C00002994D1884661E72378012B09D19DF8A5
:10354C000730A3F1410119299CBF2033DBB28DF860
:10355C000730A3189DF807105970013284F87820B1
:10356C004CE7404602B0BDE8F08100BFDE200020F1
:10357C005B21002010B5054B0446187800F048FC80
:10358C00A047BDE8104000F04ABC00BF68210020F5
:10359C007FB501A8FDF74EFD01AA0349022001F0F9
:1035AC0091F807B05DF804FBA30603002DE9F04F7A
:1035BC0018228DB0FF230DEB020000218DF80A308C
:1035CC0026F0F1FB0DF10B014FF0FF30FFF71AFD68
:1035DC00FFF7DEFF00229D49022001F073F804A8DA
:1035EC00FDF7E8FF06A90DF10A00FDF7E9FF02203F
:1035FC00974901F083F8022001F050F810B104A8AB
:10360C0000F0D2FF9DF922309DF823209149022031
:10361C0001F058F819F000F8831EDBB2FC2B0546BC
:10362C002AD88D498D4E8E4FDFF8A082022001F0F2
:10363C0049F8012422463146022001F05FF803A923
:10364C00E0B218F09BFF9128024600F09580932879
:10365C0000F09280002840F094809DF90C100091AD
:10366C009DF80E309DF80D207E49022001F02AF8BD
:10367C000134E3B2AB42DDD3BDF82040FDF7D4FDFD
:10368C00224603467849022001F038F80220774997
:10369C0001F034F8022001F001F810B106A800F096
:1036AC0083FF7349022001F00DF81EF0F3F8044675
:1036BC001EF0EAF8224603466E49022001F002F899
:1036CC00FDF7A0FF6C49022001F018F89DF80A20C4
:1036DC00FF2A5BD06949022001F010F86449DFF839
:1036EC00F081022000F0EEFFFDF776FF644A654999
:1036FC000346022000F0E6FF18F008FF624902467C
:10370C00022000F0FBFFFDF775FF0446FDF778FF84
:10371C00224603465D49022000F0D4FFFEF79EF8D6
:10372C005B490246022000F0CDFF0025FEF796F81B
:10373C00ECB2A0422FD801225649574C022000F07F
:10374C00C1FF002000F064FB544B554900220220BD
:10375C0000F0B8FF236853B11A785249022000F0E8
:10376C00B1FF236850495A78022000F0ABFF00F0FB
:10377C0056FB0DB0BDE8F08F3946022000F0A2FFD9
:10378C0076E74146022000F09DFF71E74749022091
:10379C0000F0B4FFA2E7464B464F03EB041620465D
:1037AC00D6F80890FEF78CFA82462046FEF75CF8B5
:1037BC00002814BFC346BB462046FEF781FA02F030
:1037CC0097F8002814BF404638465B460090524696
:1037DC003949DFF800B1022000F090FFB17973880D
:1037EC00327B0191B18800910220344900F06AFFCC
:1037FC00002699F80430F4B2A34201D8013595E7BC
:10380C00D9F800702E482F4914235C4307EB040AA7
:10381C003B5B9AF90C2011EA220138BF01460A469B
:10382C000220594600F06AFF022000F037FF38B141
:10383C0050463C5BFEF736F80146204602F0BCF8D9
:10384C002149022000F03EFF0136D2E75B04030061
:10385C0076040300A20403007D0403009304030018
:10386C00B70403009A040300CD040300EB04030027
:10387C0066A30200F4040300150503007AA30200FA
:10388C000330030028050300360503004A05030036
:10389C0059050300CD05030064210020D905030060
:1038AC00E7050300F30503000506030020050300EC
:1038BC004C2E00203A040300640503008405030029
:1038CC004F0403004304030059030300C204030024
:1038DC0032040300B605030008B50020FFF776FBA1
:1038EC00BDE8084080B200F057BF08B50020FFF7D4
:1038FC006DFBBDE8084080B200F062BF70B5074DAB
:10390C00074E00241434631953F8142C02B970BDFB
:10391C003146022000F0D6FEF4E700BFCCA902002D
:10392C004B2E030005F030BC08B50020FFF74EFB12
:10393C00054B1A7810F0FF0F14BF42F0010222F071
:10394C0001021A7008BD00BF5A2100202DE9F8436E
:10395C0025F066FC104EDFF84C80DFF84C900746E3
:10396C000025EBB256F833400CB9BDE8F88358F893
:10397C0023204946012000F0C1FE23782BB90749CA
:10398C00012000F09FFE0135EBE762680449D21B71
:10399C00012000F097FEF6E7F8A002009406030061
:1039AC009D060300981A00208D06030010B521F027
:1039BC0085FE0D490446012000F0A0FE022C0DD01E
:1039CC00032C0DD0012C0DD10849012000F096FEDE
:1039DC0007490120BDE8104000F074BE0549F4E72A
:1039EC000549F2E70549F0E71E0603003B06030014
:1039FC000EC50200410603005006030060060300DA
:103A0C002DE9F843114EDFF854800025FDF726FF11
:103A1C00ECB2A04201D8BDE8F8832701204616F885
:103A2C000790FDF721FF0A4B0A49002818BF4346AF
:103A3C004A46012000F062FEF05DFDF72EFE0649BD
:103A4C00012000F03FFE0135E0E700BF4C2E0020C6
:103A5C00CC0703008206030059030300C2070300CE
:103A6C0008B50020FFF7B2FA094B1B681B681978E0
:103A7C00A1F1650359425941C0B2FEF7F1FA28B9D8
:103A8C0004490120BDE8084000F01CBE08BD00BF81
:103A9C00882E00206806030049BA89B24840C0F35A
:103AAC0003114140080380B24840C3B280EA43107E
:103ABC0070470000014B1878704700BF5C21002054
:103ACC00014B1870704700BF5C21002015F0E4BA60
:103ADC0038B5A0F1430305460A2B31D8DFE803F0D3
:103AEC00060A0A121230303030301100BDE838406E
:103AFC000FF036BD0FF000FD20B10FF031FD0028A6
:103B0C00FBD138BD114C20780028FAD10123443D5B
:103B1C0023700BF023FC032D0DD8DFE805F006060F
:103B2C00090240F6010025F04BFB00232370E8E767
:103B3C0040F60200F7E77A21054804F023FCF4E78D
:103B4C008C210348BDE8384004F01CBC5D210020EA
:103B5C00B206030070477047704770477047704754
:103B6C007047704770477047704770470020704728
:103B7C0070477047002070470020704770477047AF
:103B8C007047704770477047704700002DE9F04749
:103B9C00204DDFF8A090DFF8A0A000245FFA84F895
:103BAC00404618F045FDFF2806460CD122461A491E
:103BBC00287805F013FE287801340AF057FF142CEE
:103BCC00ECD1BDE8F087154B59F82420144947B2C5
:103BDC0013EA270338BF5346287805F0FFFD002F62
:103BEC00E9DA14B1B8F1030F08D10E4B0E4928785D
:103BFC0016F0010F18BF194605F0F0FD0A2CDAD1AA
:103C0C000A4B0B49287816F0010F18BF194605F01E
:103C1C00E5FDD0E7CD1A0020D507030059030300BA
:103C2C00FD07030098070300AE070300C00703005D
:103C3C00CA07030044070300610D03008842F0B576
:103C4C004FEA92031AD89BB29E00871904460D4680
:103C5C0004370434BC4205F104053AD1C3EB833379
:103C6C00314402EB8303013E304411FA83F3994251
:103C7C0020D011F8012B00F8012FF8E7541E204436
:103C8C009BB22144A0EB830604460D46043E043C43
:103C9C00B442A5F104050ED16FF003045C43C3EBF1
:103CAC00833302EB830321449BB201342044CB1AAF
:103CBC00994209D1F0BD2F792771EF78E770AF7871
:103CCC00A7706F786770E2E711F8012900F8012DF1
:103CDC00EEE715F804CC04F804CC15F803CC04F882
:103CEC0003CC15F802CC04F802CC15F801CC04F87E
:103CFC0001CCAEE70244904200D1704700F8011BA2
:103D0C00F9E710B5013801390AB9104606E010F888
:103D1C00014F11F8013F9C4201D0E01A10BD013A4D
:103D2C0092B2F1E70A4B10B500241C70FDF77CFA37
:103D3C00084B2146188052220748FFF7DBFF074B40
:103D4C0007481C8021460C22BDE81040FFF7D2BF6B
:103D5C00BD210020CA2E0020CC2E0020BC2E00201D
:103D6C00BE2E002007490B88512B9FBF064AD0540A
:103D7C0001339BB29DBF0B8003F1FF3398180020D9
:103D8C00704700BFBC2E0020CC2E002038B5054655
:103D9C00C0B2FFF7E7FF0446280AFFF7E3FF14B1B0
:103DAC00002808BF0024204638BD194491420ADC83
:103DBC000144002003B9704711F8012D013B02EBBF
:103DCC000020DBB2F6E7002070470423FFF7EDBFBD
:103DDC0008B50223FFF7E9FF80B208BD0078FF2881
:103DEC0008BF0020704708B502220021FFF7F0FF42
:103DFC004FF6FF73984208BF002008BD024B034AE0
:103E0C001A600020704700BF6421002032A6020017
:103E1C00002814BF7020002070470020704700203D
:103E2C0070477047014B1878704700BF4C2E00202C
:103E3C0008B5FDF7ADFEFF280CBFFF20002008BD24
:103E4C0008B5FFF7F5FFFF280CBFA320002008BD25
:103E5C00002303707047FCF7C4BC10B51822002176
:103E6C000446FFF747FF2046FEF7F8FD0020FFF75A
:103E7C00ADF8E0720120FFF7ADF8A0720220FFF759
:103E8C00A5F82081FFF798F8032808D90320FFF73D
:103E9C009DF8E37A03F01F0343EA4010E07210BD73
:103EAC007FB518220021684625F07DFF6846FFF794
:103EBC00D4FF6846FDF79CF8044A054903460220E6
:103ECC0000F000FC07B05DF804FB00BF14D2020048
:103EDC009509030010B50020FFF778F8041C4FF08B
:103EEC00010018BF0124FFF771F80849A22200282D
:103EFC0018BF014620461AF0F7FA054A0549034651
:103F0C00BDE81040022000F0DDBB00BF00F8FF0749
:103F1C0012D202009509030070B50020FFF756F885
:103F2C0004460120FFF752F805460220FFF74EF831
:103F3C00E4B2C2B2201C294618BF01201AF02DFB96
:103F4C00034A04490346BDE87040022000F0BABBA6
:103F5C00E1090300950903007FB56846FFF77DFF73
:103F6C006846FDF727F8044A04490346022000F08E
:103F7C00A9FB07B05DF804FB2DD0020095090300E6
:103F8C0008B50C490020FFF77EF80A48FEF79DFDA6
:103F9C000220094900F0B2FB022000F07FFB10B1B7
:103FAC00044800F001FB05490220BDE8084000F080
:103FBC0089BB00BFB3210020420903005903030051
:103FCC0010B51BF063FE044A04490346BDE81040DB
:103FDC00022000F077BB00BF37FD020095090300FB
:103FEC0010B50020FEF7F2FF002104464FF0FF3021
:103FFC00FFF708F80178A1F162035942E0B2594188
:10400C00BDE81040FCF700BE08B5FEF762FD0349A1
:10401C000246BDE80840012000F054BBFF08030035
:10402C0008B5FEF711FD03490246BDE80840012022
:10403C0000F048BB1309030010B50020FEF7C6FFC3
:10404C000121C4B2A1400023FE224FF6FF7020F0E4
:10405C00C9FE2246034603490220BDE8104000F089
:10406C0031BB00BF2509030007B502A8032320F8C4
:10407C00043D1BF015F804490246022000F022FB17
:10408C0003B05DF804FB00BF7909030008B50020FC
:10409C00FEF79CFFC0B228B104490120BDE80840DE
:1040AC0000F010BB024B187008BD00BFF6090300EE
:1040BC006821002007B56846FDF77CFAFDF7B4F8D7
:1040CC0008490246012000F019FB684600F06CFA22
:1040DC00FDF7ACF804490246012000F0F3FA03B0F6
:1040EC005DF804FB500903006909030073B5002057
:1040FC00FEF76CFFC4B20120FEF768FFC5B20220C8
:10410C00FEF768FF46B2FEF757FF032812D90320CB
:10411C00FEF75CFFC0B2009033462A4621460120D0
:10412C0024F056FC40B90949012002B0BDE87040AA
:10413C0000F0C8BA0020EEE70090054B054A06498E
:10414C00012000F0BFFA02B070BD00BF9D09030052
:10415C00A509030052D10200B909030007B50120DB
:10416C0024F038FC034638B9084A0949012003B049
:10417C005DF804EB00F0A6BA0090044B054A064922
:10418C00012000F09FFA03B05DF804FBA5090300C1
:10419C00CE090300A6F50200B9090300037813F059
:1041AC00050F37B504460CD04388062B14D1826812
:1041BC00838852681449127800920220134A00F046
:1041CC0081FA2378012B1DD0104A1149022003B02B
:1041DC00BDE8304000F076BA2BB982880D49022038
:1041EC0000F070FAEDE7012BEBD185680A4902204B
:1041FC0000F084FA284600F0D7F90849022000F0B4
:10420C0061FADEE703B030BD200A030093EC020034
:10421C00700A03003C0A0300580A03005903030008
:10422C00094B1B681B681B78652B084B0CBF0122C4
:10423C0000221A701978064A064B0220002908BF82
:10424C001A46054900F03EBA882E0020CC1A0020F0
:10425C00F4CC0200BACC0200A30B0300FEF72ABC7C
:10426C0037B50020FEF7B2FE05460120FEF7AEFE84
:10427C00054B1C88054B009382B20123A9B2204642
:10428C0001F06FF803B030BD9A1B0020A94100006B
:10429C002DE9F04F384D394FDFF8F480DFF8F4900A
:1042AC000FCD91B00BAC0FC42B68354923600220A5
:1042BC0000F008FA00263446FDF792F9F5B2A84250
:1042CC000AD8FDF78DF9224603462E49022000F04C
:1042DC00F9F911B0BDE8F08F07A928460BF010FBD7
:1042EC000246002842D19DF81C30032B84BF0423C6
:1042FC008DF81C309DF81C30002B35D02A464146D9
:10430C00022000F0FBF99DF81C3010AA02EB83038D
:10431C00494653F8142C022000F0F0F99DF8203097
:10432C00BDF81E209DF829A09DF81DB005932846C8
:10433C0004920BF0DDFA049A059B02900192009313
:10434C0002205B4652461049013400F0D7F9022096
:10435C00E4B200F0A3F918B10DF1210000F024F93A
:10436C000A49022000F0AEF90136A5E739460220D1
:10437C0000F0A8F9F8E700BF0C0A0300D00A03000C
:10438C00820A0300F00A0300AF0A0300590303007A
:10439C00950403004B2E03000BF08EBC08B50020D7
:1043AC00FEF714FEBDE80840C0B2FCF777BF000072
:1043BC00084B1B681B685B78652B02D1002001F051
:1043CC007FBB6E2B01D10120F9E7662B01D10220B6
:1043DC00F5E77047882E0020054B1B681B685B783F
:1043EC00A3F1660253425341024A1370704700BF57
:1043FC00882E0020C21B002010B5002086B0FEF7CE
:10440C00E5FD694604460120FEF73DFE012310221E
:10441C0002A90220FEF714FEE1B202AB6A460020AC
:10442C000BF019F80446022000F038F918B12146B7
:10443C000448FCF7CBFB0449022000F043F906B01A
:10444C0010BD00BF960B03005903030010B58CB0D0
:10445C000023122207A90220FEF7F2FD03AA01464F
:10446C0007A8FDF723F9044688B1BD2802D11449E9
:10447C00022002E0022803D1124900F023F904E0E3
:10448C0002461149022000F01DF90CB010BD01A923
:10449C000120FEF7F8FD2046FEF798FD03ABC1B2F4
:1044AC0001AA20460AF0D7FF0446022000F0F6F8D5
:1044BC0018B121460548FCF789FB0549D8E700BF30
:1044CC00190B03003C0B0300770B0300960B030046
:1044DC00590303007FB50020FEF778FD0446022047
:1044EC00FEF774FDC6B23046FFF7AAFCE4B20546EF
:1044FC00E8B901208DF80000FEF768FDADF8020068
:10450C0003208DF80160FEF761FD0DF105018DF8BA
:10451C0004000420FEF7B7FD0EF023F969468DF870
:10452C000D0020460BF052FA0546FFF778FC2B469F
:10453C0022460349022000F0C5F804B070BD00BF4C
:10454C00070B0300F8B506460C4615461F4600F04F
:10455C00A5F818B1013C2544AC4200D1F8BD14F8C3
:10456C00012F3946304600F0C9F8F5E730B4044D58
:10457C00044C002B14BF2B46234630BCFFF7E2BF84
:10458C00CB0B0300F014030070B5054608460C462F
:10459C00FFF724FC611C82B2024B2846BDE8704038
:1045AC00FFF7D0BF7414030000B502460C49C37961
:1045BC000888117889B00691517805919178049109
:1045CC00D1780391117902915179019192790092EC
:1045DC0004493E2200F092F809B05DF804FB00BFDC
:1045EC006A210020CF0B03002DE9F047104EDFF8B5
:1045FC0050A0104F0546884691460024AC4201D18C
:10460C00BDE8F08708EBC401308853460822FFF759
:10461C0099FF01343088B9F1000F07D1064AA54241
:10462C0008BF3A46054900F069F8E7E73A46F9E76A
:10463C006A21002057030300590303004A2E03008C
:10464C00CB0B0300014600220220FFF7CDBF000078
:10465C002DE9F0410E4C0646208800F01FF8A8B159
:10466C000C4FDFF834800025F3070AD518B9414602
:10467C00208800F043F820882A46394600F03EF89E
:10468C00002001351B2D4FEA5606EDD1BDE8F08117
:10469C006A210020AC190300FCA202004FF6FF7344
:1046AC00984208D0030A08D1054B1B78034214BF6B
:1046BC00012000207047012070470020704700BF88
:1046CC009C1B00200EB417B505AA044652F8041B17
:1046DC000192FFF7E3FF40B1202005F092F8054965
:1046EC00202005F066F8044B1C8003B0BDE8104098
:1046FC0003B07047570303006A2100200EB417B5AE
:10470C0005AA044652F8041B0192FFF7C7FF20B11B
:10471C00202005F076F8034B1C8003B0BDE8104058
:10472C0003B070476A210020F7B50F4F0F4E104DA4
:10473C0000240120A04080B257F82420FFF7AEFFE0
:10474C00002814BF304628461346009022460949DB
:10475C00202005F043F8013420200AF087F9032CBF
:10476C00E7D103B0F0BD00BFE40B0300F40B030072
:10477C00F80B0300FB0B03000122FF210148FFF79C
:10478C00B9BA00BF9C1B0020012200210148FFF791
:10479C00B1BA00BF9C1B00200122430100F00700AE
:1047AC0002FA00F003F47F4303449BB21A0A01BFE0
:1047BC0002490A7813430B70704700BF9C1B002002
:1047CC000122430100F0070002FA00F003F47F43DA
:1047DC0003449BB21A0A01BF02490A7822EA030376
:1047EC000B7070479C1B002013B503680446587966
:1047FC0001F07EF888B923685A88032A0DD0E17C31
:10480C005B790120CDE900210849094AFFF75AFFDD
:10481C000121204601F011FA05E02046FEF7C0F810
:10482C0001460028F5D1012002B010BD1F0C030079
:10483C00BACC02002DE9F04F427D036890F813B01A
:10484C008668878990F81490B3F80280002A8BB0A0
:10485C0014BF8022402205465879059201F048F891
:10486C0098B9BBF1050F04D82D2323FA0BF3DC0701
:10487C000BD4B8F1030F08D0A4490120FFF722FF95
:10488C000121284601F0D9F98FE1EB7B1BB12A8A73
:10489C00002A00F06E829E4A00211180697D002959
:1048AC00924614BF102018200BB140F00400FFF703
:1048BC0059FAEB7B13B1288AFFF768FAA87C1FFA28
:1048CC0089F4FFF74FFABBF1160F00F24C82DFE8C8
:1048DC001BF01700740161004E00A8016100660115
:1048EC00B0017001B801C001C8012D01DE014A02FE
:1048FC004A024A02F2011B02F20132022D01DE01D0
:10490C0004204346834A8449FFF7DCFE0120FFF76D
:10491C0029FA631CBB4202DB01F042F945E13A463D
:10492C0021463046FFF754FA2B6881465879BAF87D
:10493C000030C3F152039BB201932B8A00934A4679
:10494C00059B4146FCF750FF70B92B685879BAF8B3
:10495C000030C3F152039BB201932B8A00934A4659
:10496C00059B4146FDF7E6FEA21C94B2D1E704205C
:10497C00FFF7F8F900230693A31CBB4225DB069B2B
:10498C00002BC9D1EB7B2C7D002B614B0CBF022281
:10499C0004221A800420FFF7E5F9002306939A46B7
:1049AC0004F103094F4560DCBBF1050F00F0FD80FD
:1049BC00BAF1000FB0D1069B002B40F0A2805749F2
:1049CC000420FFF77FFE80215BE73A462146304604
:1049DC00FFF7FEF93319079093F802A05046FCF745
:1049EC004DFF002839D0E01C3044FFF7F7F90130B7
:1049FC005FFA80F95046FCF741FF20B109EB040344
:104A0C00FB1A032B2ED42B68079A5879CDF808A0E3
:104A1C00E31C334401932B8A00934146059BFDF71D
:104A2C0055FD8246A0B1069B0133DBB2504606937E
:104A3C00FFF798F90798FFF7A9F942463849079B01
:104A4C000420FFF73FFE524636490420FFF73AFE9A
:104A5C0009F10302224494B28EE75046FCF7D6FECD
:104A6C008146C7E74FF0800ADDE73A4621463046DB
:104A7C00FFF7AEF9331907909B7808931846FCF7AB
:104A8C00FDFEB14440B34846FFF7A8F90130C3B26C
:104A9C0009932B68079A5879089BCDE901932B8AC7
:104AAC0000934146059BFDF7C9FC079B1C498146B9
:104ABC0042460420FFF722FEB9F1000F11D1069BEC
:104ACC0019490133DBB204200693FFF7FBFD099A69
:104ADC000332224494B263E70898FCF797FE0990DE
:104AEC00D7E70AF1010348465FFA83FAFFF73AF970
:104AFC000798FFF74BF94A460A490420FFF7E2FDF5
:104B0C00E5E75046FFF72EF906E700BF3A0403002D
:104B1C00BC2E00204E0C0300970C03007A0C0300F3
:104B2C00580C0300720C030094A90200924A934B98
:104B3C009349CDF80080BBF1150F18BF1346042024
:104B4C00904AFFF7BFFDBBF10C0F14BF16200D20D0
:104B5C00FFF708F93A4621463046FFF739F94E443B
:104B6C00BBF1150F0746B47802D1132C28BF1324C0
:104B7C000020BAF80060FFF7F5F82B68ABF11501CF
:104B8C0058794B424B41CDE901432B8A00933A466D
:104B9C00059B4146FDF7F6FA7B4B9855BCE628463B
:104BAC00FDF740FF002800F0DE8001200BB0BDE8CF
:104BBC00F08F2846FDF779FFF4E7B8F10A0F06EB02
:104BCC00090A24D1DFF8C4B19BF80030FBB1EB7BB0
:104BDC00EBB9A7EB0909B9F1080F18D13A462146F0
:104BEC003046FFF7F5F890B99AF80290B9F1000F3A
:104BFC000DD19AF80330E22B09D1211D3A4689B226
:104C0C003046FFF7E2F800F0FFFD8BF800903A1BFE
:104C1C0092B251464046FCF7F4FD0028C5D1002164
:104C2C002FE63A1B92B206EB09014046FDF756FF00
:104C3C00F3E73A1B92B206EB09014046FDF7F4FE8E
:104C4C00EBE73A1B92B206EB09014046FDF72FFF4A
:104C5C00E3E73A1B92B206EB09014046FCF7D3FDA1
:104C6C00DBE701342B6816F8097058792B8AA4B24B
:104C7C003A46345D0193059B009341462346FDF76C
:104C8C0019F9224639464046FDF7D0FE8DE7621CE5
:104C9C0090B216F80910ABF11602534253413F1A69
:104CAC000031009306EB0002BBB218BF0121404655
:104CBC00FDF7BEFEB1E716F809704E44BBF1110FBB
:104CCC0096F801901BD11220FFF74CF80020BAF88F
:104CDC0000402D4ECDF804A0C4F1510292B2631CD9
:104CEC0000923344CDE9027942462946FDF7F4F9A6
:104CFC00BAF8003030550133AAF800300CE6142015
:104D0C00FFF730F80120E2E716F809200134A4B2CD
:104D1C000032A7EB040718BF01223319BFB20021E0
:104D2C00C8B2874201F10101FAD8298A009740469E
:104D3C00FDF782FE71E716F809200134A4B20032A7
:104D4C0006EB0403A7EB040418BF0122A4B2002154
:104D5C00C8B2844201F10101FAD8298A0094404674
:104D6C00FDF768FE59E7EB7B002B0CBF82218421F9
:104D7C0087E5842185E500BF59030300490C030036
:104D8C00950C03008B0C0300CC2E00206C21002012
:104D9C0082B2074B42B11A80000C064B0ABF4FF689
:104DAC00CE2218801A8070474BF6EF62F3E700BFF3
:104DBC009E1B0020A01B0020094B1888020448BF32
:104DCC0080F0620042001A80064A1388190444BF1E
:104DDC0083F4805383F00B035900118058407047C3
:104DEC009E1B0020A01B0020034B1870034B197056
:104DFC00034B00221A7070476E2100206D21002099
:104E0C006F2100202DE9F04F234E337885B00746F3
:104E1C008846002B3DD0214D4FF6FB7398422C78E1
:104E2C0003D952211E4803F0ADFA1E4B4FF0000B74
:104E3C009A46327818785FFA8BF94A4511D948446A
:104E4C0002A9C0B2019320F043F9082241460DEBB0
:104E5C000200FEF756FF0BF1010B019B0028E8D175
:104E6C004C462B78A34207D1631C3278DBB29A42B2
:104E7C002B7004BF00232B709AF800301C44E4B252
:104E8C004146204620F07EFA18B93946204620F0DB
:104E9C00EDF805B0BDE8F08F6D2100206F210020EA
:104EAC00A40C03006E2100200C4B13B51B681B686F
:104EBC001B78672B04D101A80CF06CFD02B010BD5F
:104ECC000020FEF783F804460120FEF77FF801A9C5
:104EDC00ADF8040020460CF02DFDEFE7882E0020E5
:104EEC0070B517F013FB30B10A4A0B490120BDE82D
:104EFC007040FFF7E7BB094B094C1B6809491B685D
:104F0C001D7810226C2D18BF21460123BDE870407E
:104F1C00FEF796B8EDA20200420D0300882E002089
:104F2C00A21B0020B21B00202DE9F04707468AB0D7
:104F3C00A0B9FCF753FB06462649DFF8A080DFF842
:104F4C00A090DFF8A0A00120FFF7BCFB00252C46A9
:104F5C00B44205D328460AB0BDE8F0870126EBE73A
:104F6C0069462FB101200BF087FE60B3FE2403E0ED
:104F7C0020460AF06CFA10B10134E4B2E8E722469C
:104F8C0051460120FFF7BAFB0120FFF787FB18B150
:104F9C000DF11D00FFF708FB069A41460120FFF7B3
:104FAC00ADFBBDF8003013F0100F14BF79226E2248
:104FBC0049460120FFF7A2FB01350DF10300FFF775
:104FCC0041FBEDB2D8E704490120FFF797FBFE2423
:104FDC00DAE700BFC00E0300130F0300F50E030049
:104FEC00FD0E03000B0F0300F0B51E491E4D1F4EA6
:104FFC001F4F89B00120FFF765FB694600200DF0BB
:10500C0077F8002410B1204609B0F0BD01202246EB
:10501C002946FFF773FB0120FFF740FB10B16846F0
:10502C00FFF7C2FA069A31460120FFF767FBBDF87D
:10503C001E2039460120FFF761FBBDF81C200D49ED
:10504C000120FFF75BFB013402A8FFF7FBFAE4B287
:10505C0009490120FFF736FB694620460DF048F858
:10506C00D0E700BF1A0F03000B0F0300F50E03006F
:10507C00560F03005D0F03005903030000B58BB0FE
:10508C00694601200BF0F8FD18B905980BB05DF8D6
:10509C0004FB4FF0FF30F9E710B58CB002A80CF010
:1050AC0079FC38B9BDF80830DB0703D42F4901204F
:1050BC00FFF708FB02A903200BF0DEFD20B128222C
:1050CC00FF2102A8FEF716FE079B294A2949012059
:1050DC00FFF7F8FA9DF82430254A27490120FFF7FD
:1050EC00F1FA234A25490120FFF708FB0DF10B00CB
:1050FC00FFF7A8FAFFF7C2FF214A1E490346012019
:10510C00FFF7E0FA1E4A1F490120FFF7DBFA0120E6
:10511C00FFF70AFF1A4A1C490120FFF7D3FA0020B7
:10512C00FFF702FF0446FCF759FA224603461749DB
:10513C000120FFF7C7FA164A13490120FFF7C2FAFC
:10514C00FFF752FF1349144B012898BF0B46134924
:10515C00CDE900030246124B4FF0010088BF0B460D
:10516C001049FFF7AFFA0CB010BD00BFF90D0300EA
:10517C00310E0300390E0300480E0300590E0300D4
:10518C005E0E0300670E03006D0E0300760E030027
:10519C008A0E030059030300B0060300F50D03004B
:1051AC004FCB0200980E030010B50020FDF70EFF48
:1051BC000446003018BF01201AF056FB054A064B76
:1051CC000649002C08BF1A460120BDE81040FFF725
:1051DC0079BA00BF580D03005D0D0300660D030086
:1051EC0008B50020FDF7F2FE044B0549188082B289
:1051FC00BDE808400120FFF765BA00BF881F0020FA
:10520C00A70D030008B50020FDF7E0FE034B187056
:10521C000120FDF7DBFE024B187008BD6221002057
:10522C007E1B002038B5012505704FF6FB75A94291
:10523C0098BF6FEA43439DF81040847298BF6FEAA1
:10524C00534303814260064BC07A082103EBC00034
:10525C00FEF701FE0420BDE83840FDF7D7BB00BFC8
:10526C00202F00200948037873B9094A1946D372D4
:10527C000133042B1173117051601181917202F181
:10528C001002F4D101230370704700BFB02100203D
:10529C007021002038B5FFF7E5FF094D00240DF013
:1052AC0060FA204400012B5C2BB90DF05AFA204413
:1052BC0005EB001038BD0134042CF0D10020F9E7C7
:1052CC007021002030B5054685B0007BFEF7A0FDAF
:1052DC00174BE87A002403EBC0002C70FEF7B8FDE6
:1052EC000DF03FFA134B00B203EB00132046020102
:1052FC009A5C22B901300428F9D1FDF7E1FB696809
:10530C0091B12B8943F38132C3F30E03ADF8063010
:10531C004FF6FF7302F00202ADF8083000238DF84F
:10532C000420039301A88847FEF779FD05B030BD32
:10533C00202F00207021002038B504464368084611
:10534C000D469847B4F90830002B02DB2B78042B60
:10535C0006D1002363602046BDE83840FFF7B2BF9A
:10536C0038BD2DE9F34104460D4617469846FFF724
:10537C0091FF0646D8B14FF6FB724FF6FD7394427F
:10538C0088BF1C46294643463A46204600F088F919
:10539C00054601F001FF35B900900623089A214615
:1053AC003046FFF73FFF284602B0BDE8F08170257C
:1053BC00F9E7F7B506460F46FFF76CFF054698B1BF
:1053CC0000224023114630461FF003FD04461FF017
:1053DC00E5FD34B9009001233A4631462846FFF7E3
:1053EC0021FF204603B0F0BD7024FAE773B50446E4
:1053FC000E46FFF74FFF054698B100222046114696
:10540C001FF092FD04461FF0C9FD3CB900902346E5
:10541C0032464FF6FC712846FFF704FF204602B0D7
:10542C0070BD7024FAE7000038B5002404700546FE
:10543C00FFF718FF0D4B9D420BD003F1080295426C
:10544C000ED003F1100295420CD018339D420BD1B3
:10545C000324074B03EB0410BDE83840FFF732BFC1
:10546C000124F6E70224F4E738BD00BF202F00200A
:10547C00702100202DE9F0479CB014461D4692F88F
:10548C0000A00F460DF06DF98146FFF7EBFE834847
:10549C000A22102313FB09230344002280461978A7
:1054AC00514506D113F80A6C1EB1398839B1002662
:1054BC008EE00132042A03F11003F0D1F7E7914496
:1054CC007B8808EB09173A8942F400408342EED1FD
:1054DC00617800297CD1A3F50043062BE7D801A104
:1054EC0051F823F02B5600002B560000BB54000043
:1054FC00BB5400000D55000069560000E555000036
:10550C00E179A379E07A8DF80C0003EB0123ADF877
:10551C001C30617A237A03EB0123811D0D3DADF81C
:10552C001E3014F811C063798DF8203015F0010588
:10553C008DF814C04CD109AB049304F10C08AE46A1
:10554C005FFA8EF9814508F102080AD218F801AC0D
:10555C0018F8029C09EB0A2923F81E900EF1010E93
:10556C00EEE74900013103EB400301F0FF01069324
:10557C005FFA85FE0EEB0003E645DBB211D20DF1AE
:10558C00700E0EEB430304EB010E01359EF8018007
:10559C0014F801E002310EEB082E23F84CECC9B2E2
:1055AC00E6E712F4004F0CBF01230323E1788DF8DA
:1055BC000030A37803EB0123ADF80430C2F30E02E4
:1055CC0003ABADF80220029369463846FFF7B4FEF0
:1055DC0030461CB0BDE8F087042DF9D9053D237980
:1055EC00ADB29D42F4D1002BF2D0A378E1788DF8C6
:1055FC000C5012F4004F03EB012304F105040CBF13
:10560C0001200320C2F30E02ADF8283003AB049442
:10561C008DF82400ADF826200B9309A9D5E70B2DA6
:10562C00D6D903AD08EB09180822A11C2846FEF7B1
:10563C0005FBB8F80830E17A0B9513F4004F0CBF5A
:10564C00042203228DF82420A27AC3F30E0302EB6A
:10565C000122ADF82820ADF82630DEE7042DB7D9AD
:10566C00E178A37803EB01232179ADF828304B1DA9
:10567C00DBB2AB42ACD112F4004F0CBF01230323BD
:10568C008DF82430C2F30E0203AB0534ADF826209E
:10569C000B9304948DF80C10BFE700BF7021002011
:1056AC002DE9F341054601200E4690461F4617F0A2
:1056BC00B5FBFF2804461CD0022117F0A9FB42467B
:1056CC000021204617F0EBFD002F4FF4825300937E
:1056DC0028460DBF2346FF232246FF22314601F008
:1056EC0013FE0546204617F0BFFB284602B0BDE866
:1056FC00F0811825F9E70000304BB0FBF3F22DE9EF
:10570C00F04103FB12004FF46165B0FBF5F3DCB222
:10571C0005FB13033C25B3FBF5F3DBB2A0EB041044
:10572C004B71C3EB0313A0EB83038B714FF4FA6340
:10573C000B8040F201134B80DFF884C00C71012305
:10574C0000241D4664264FF4C877944201D1BDE86D
:10575C00F08188780BB1022829D00CEB000E1EF8D2
:10576C00018C91F803E0C64504BF0130887088783D
:10577C000EBFCD700EF1010E81F803E00D2814D18F
:10578C000B888D7001339BB298070B8012D1B3FB41
:10579C00F6F006FB103080B270B9B3FBF7F007FBE4
:1057AC0010339BB2B3FA83F35B090134CDE74FF0AE
:1057BC001D08D6E70023F8E70123F6E78051010026
:1057CC00670F030010B588B006A90446FFF794FFD5
:1057DC000B499DF81B3008889DF81E1003919DF80D
:1057EC001D1002919DF81C100191BDF8181000912C
:1057FC009DF81A2004940349FEF764FF08B010BD0D
:10580C006A210020730F0300FDF760B9FDF71EB984
:10581C0010B50268174B118819805188598051793D
:10582C001971117959714FF48251D980D188890637
:10583C0044BF4FF48351D980D2888169520642BF4C
:10584C00DA8842F04002DA800B4A137831B90B49FE
:10585C00C088088023F00203137010BD084C43F07D
:10586C000203137020461622FEF7E8F9002323707A
:10587C00F3E700BFBE2E0020BD210020CA2E002061
:10588C00BE21002010B5184C23685879FCF780F91C
:10589C00FF2822D0154B03EB0010237F027B9A428A
:1058AC001BD12368428819888A4205D04FF6FF70B5
:1058BC00814212D1120410D42279023A012A06D95B
:1058CC00A37B63B10848BDE81040FEF78DBF198972
:1058DC005879FDF7B3F80028F2D1002010BD02482A
:1058EC00BDE81040FEF7A6BF402F00204C2E002034
:1058FC0008B5FCF74DF910B9024B187808BD00201B
:10590C00FCE700BF642F002008B50020FEF780FAEA
:10591C00FF20FCF7B3FAFEF782FAFBF79FFF012199
:10592C0082B20A48FEF7E6F9094B0A4A0A485221A4
:10593C00FDF7E6F9FAF72CFF01F069FF08F09CFA85
:10594C0002F054FBBDE80840FCF774BB642F002048
:10595C00BE2E0020BC2E0020CC2E0020704708B597
:10596C0018F064FA20B916F0D1FD08B9FDF755F816
:10597C00FDF79FF8BDE80840FDF7AEB8F0B50D4E49
:10598C00074600224FF6FF7490B2034636F83050AB
:10599C00A54201D12046F0BDBD4209D1B7F57C4FDF
:1059AC00F9D306EBC3035B888B42F4D00029F2D009
:1059BC000132E9E7A813030010B50446FFF7DEFF38
:1059CC00094B014618884FF6FF73994215BF074BD8
:1059DC00074903EBC10322461CBF5A680549BDE8C1
:1059EC001040FEF78BBE00BF6A210020A8130300F5
:1059FC0008130300FDA5020073B51546089C2E780C
:105A0C0016F0040F14BF052603269E421A4608D929
:105A1C00022000961D4A1E49FEF754FE002002B0DB
:105A2C0070BDBDF8183021712060E380A560A281A3
:105A3C002B7803F00103A3732B7803F00403002BE2
:105A4C0014BF01210021E1732978C1F3C0016175F4
:105A5C004FF00101217517D02846FEF7B9F9237DC7
:105A6C00208202332375237D5A1CD2B22275E95C45
:105A7C00A17402332375AB5CE374079BA3610CF038
:105A8C0070FE20770120CAE72382ECE7EDA202002A
:105A9C006F130300034B18780130C0B2187000F07C
:105AAC007F007047C41B0020044A137818B143F0E0
:105ABC0001031370704723F00103FAE7BD210020A6
:105ACC00014B1870704700BFBC21002038B1074B48
:105ADC001B78012B04D1038843F0400303807047EB
:105AEC00022BFCD1038823F04003F7E7BC210020F4
:105AFC0068B1074A1378012B07D1064B1B7813703A
:105B0C00037843F01003037001E0022BF8D07047C8
:105B1C00B2210020BB21002073B51A4D2A78D4077E
:105B2C0006462CD4184B1978184B187840074CBFE4
:105B3C00D9705970164912F00204098809D0134A19
:105B4C001448FCF78CFF2B7823F002032B7002B067
:105B5C0070BD114A10884FF6FB72904208D8CDE9FF
:105B6C0000360E4A0B4601462046FBF702F8EEE7DC
:105B7C000A460096054B0949FAF7E2FFE7E70020D1
:105B8C00E5E700BFBD210020C31B0020CC2E002068
:105B9C00BC2E0020BE210020CA2E0020BE2E0020CC
:105BAC000020FFF7B9BF000070B50379012B044644
:105BBC000D46164631D883681B78DB0600D561B3D9
:105BCC00A37B13B9E37C0B2B27D0154B00221A8037
